:100000000C940D180C944D180C944D180C944D181C
:100010000C944D180C944D180C944D180C944D18CC
:100020000C944D180C944D180C944D180C944D18BC
:100030000C944D180C944D180C944D180C944D18AC
:100040000C944D180C9452920C944D180C944D181D
:100050000C944D180C942C900C944D180C9464DC5A
:100060000C944D180C94A1570C9497570C944D1860
:100070000C944D180C944D180C944D180C944D186C
:100080000C944D180C944D180C944D180C944D185C
:100090000C944D180C944D180C944D180C944D184C
:1000A0000C944D180C944D180C944D180C944D183C
:1000B0000C944D180C944D180C944D180C944D182C
:1000C0000C944D180C944D180C944D180C944D181C
:1000D0000C944D180C944D180C944D180C944D180C
:1000E0000C944D18084AD73B3BCE016E84BCBFFD33
:1000F000C12F3D6C74319ABD56833DDA3D00C77FF8
:1001000011BED9E4BB4C3E916BAAAABE0000008090
:100110003F05A84CCDB2D44EB93836A9020C50B91F
:10012000918688083CA6AAAA2ABE000000803F004B
:100130004E414E494E495459494E46CDCCCC3D0ACC
:10014000D7233C17B7D13877CC2B329595E6241FAF
:10015000B14F0A000020410000C84200401C462068
:10016000BCBE4CCA1B0E5AAEC59D74434F4D4D5577
:100170004E49434154494F4E0044525952554E0046
:100180004552524F525300494E464F004543484F47
:1001900000554E4C4F41442046494C414D454E542C
:1001A000004C4F41442046494C414D454E54004679
:1001B000494C414D454E54204348414E474500531C
:1001C000544F505045442E20005072696E74657231
:1001D0002073746F707065642064756520746F207F
:1001E0006572726F72732E2046697820746865207C
:1001F0006572726F7220616E6420757365204D396F
:10020000393920746F20726573746172742E2028DE
:1002100054656D70657261747572652069732072C2
:10022000657365742E20536574206974206166744B
:1002300065722072657374617274696E67290A0051
:100240004E6F20436865636B73756D2077697468C2
:10025000206C696E65206E756D6265722C204C6134
:100260007374204C696E653A20004E6F20436865B8
:10027000636B73756D2077697468206C696E652097
:100280006E756D6265722C204C617374204C696EC2
:10029000653A2000636865636B73756D206D6973E3
:1002A0006D617463682C204C617374204C696E65B9
:1002B0003A20004C696E65204E756D62657220694A
:1002C00073206E6F74204C617374204C696E6520CE
:1002D0004E756D6265722B312C204C617374204C0D
:1002E000696E653A20004D313130005365726961A5
:1002F0006C20737461747573206D69736D617463C0
:10030000680A0053442072656164206572726F72DE
:100310000A004B494C4C20627574746F6E2F7069E3
:100320006E0A002121204B494C4C20636175736596
:10033000642062792000746F6F206D756368206996
:100340006E6163746976652074696D65202D206324
:10035000757272656E7420636F6D6D616E643A20A4
:10036000002121204B494C4C20636175736564204A
:1003700062792000627573793A20706175736564E3
:1003800020666F7220696E7075740A0062757379E9
:100390003A2070617573656420666F7220757365AD
:1003A000720A00627573793A2070726F63657373B5
:1003B000696E670A004D656469612052656D6F76EC
:1003C0006564004D6564696120496E73657274658A
:1003D0006400506C656173652052657365740050EC
:1003E00052494E5445522048414C544544002553EF
:1003F0003A202553004B494C4C45442E2000507266
:10040000696E7465722068616C7465642E206B6916
:100410006C6C28292063616C6C6564210A0065633B
:10042000686F3A004572726F723A00486F74656E79
:100430006420746F6F20636F6C640A005072657380
:100440007320627574746F6E20746F20726573759B
:100450006D650A00496E736572742066696C616D22
:10046000656E7420616E64207072657373206275AE
:1004700074746F6E0A0050726573732062757474C1
:100480006F6E20746F2068656174206E6F7A7A6C6D
:10049000650A0020440020204D32303020530020D7
:1004A0002844697361626C6564293A0046696C612D
:1004B0006D656E742073657474696E6773002020B7
:1004C0004D3230312058004D617820416363656CB6
:1004D00065726174696F6E2028756E6974732F730D
:1004E00032290020204D3230332058004D617820D1
:1004F0006665656472617465732028756E697473CE
:100500002F73290020520020204D3230342050001B
:10051000416363656C65726174696F6E2028756EE6
:100520006974732F7332292028503C7072696E747D
:100530002D616363656C3E20523C72657472616329
:10054000742D616363656C3E20543C747261766502
:100550006C2D616363656C3E2900205800205400B7
:1005600020530020204D3230352042004164766116
:100570006E6365642028423C6D696E5F7365676DCC
:10058000656E745F74696D655F75733E20533C6D75
:10059000696E5F66656564726174653E20543C6D8A
:1005A000696E5F74726176656C5F666565647261C1
:1005B00074653E20583C6D61785F6A65726B3E20C1
:1005C000593C6D61785F6A65726B3E205A3C6D6183
:1005D000785F6A65726B3E20453C6D61785F6A6545
:1005E000726B3E290020440020490020204D33300A
:1005F00031205000486F74656E64205049440020DB
:10060000440020490020204D333034205000426502
:1006100064205049440020204D3930370053746520
:1006200070706572206D6F746F7220637572726581
:100630006E747300203B0020550020204D3630336F
:10064000204C0046696C616D656E74206C6F61644E
:100650002F756E6C6F6164003B200020496E7661DF
:100660006C69642065787472756465722000473225
:100670002F47332062616420706172616D6574651B
:1006800072730A00536C6565702E2E2E00436C69E0
:10069000636B20746F20526573756D652E2E2E006E
:1006A0004E6F204D6F76652E00456E642066696C36
:1006B00065206C6973740A00426567696E2066691B
:1006C0006C65206C6973740A004E6F206D656469F7
:1006D000610A00286E6F2066696C65290043757297
:1006E00072656E742066696C653A20004E6F7420E6
:1006F0005344207072696E74696E670A0053442017
:100700007072696E74696E67206279746520002E5C
:100710000A0044656C6574696F6E206661696C657A
:10072000642C2046696C653A200046696C6520643B
:10073000656C657465643A002569730025696D20F0
:10074000256973002569682025696D202569730076
:10075000256964202569682025696D202569730055
:1007600025697920256964202569682025696D201F
:10077000256973005072696E742074696D653A2042
:10078000006F6B006F6666008C0187018001790144
:100790006B0144454255473A004D31313220536890
:1007A0007574646F776E004D31313320530054659A
:1007B0007374696E67204D616368696E65204E6170
:1007C0006D65204F46462E00434F4E4649475F45D4
:1007D00058504F5254004D4541545041434B0043F3
:1007E0004F4F4C45525F54454D5045524154555220
:1007F00045004348414D4245525F54454D50455296
:100800004154555245004241425953544550504974
:100810004E470041524353004D4F54494F4E5F4D98
:100820004F44455300544845524D414C5F50524F40
:1008300054454354494F4E00455854454E44454451
:100840005F4D323000435553544F4D5F4649524D32
:10085000574152455F55504C4F4144004C464E5F06
:100860005752495445004C4F4E475F46494C454E00
:10087000414D45004155544F5245504F52545F53DE
:10088000445F5354415455530053445F57524954A5
:100890004500524550454154004D554C54495F5612
:1008A0004F4C554D45005344434152440050524F24
:1008B0004D50545F535550504F525400484F53546D
:1008C0005F414354494F4E5F434F4D4D414E44535A
:1008D00000454D455247454E43595F50415253459F
:1008E0005200434153455F4C494748545F42524987
:1008F0004748544E45535300544F47474C455F4C6F
:10090000494748545300534F4654574152455F504E
:100910004F574552004255494C445F50455243455C
:100920004E54004C4556454C494E475F4441544156
:10093000005A5F50524F42450052554E4F55540099
:100940004155544F4C4556454C005052494E545F0A
:100950004A4F420050524F4752455353004155545D
:100960004F5245504F52545F54454D5000415554DD
:100970004F5245504F52545F504F5300564F4C55B5
:100980004D455452494300454550524F4D00424950
:100990004E4152595F46494C455F5452414E534671
:1009A00045520053455249414C5F584F4E5F584F96
:1009B0004646004649524D574152455F4E414D45CE
:1009C0003A4D61726C696E20322E312E3220284DE4
:1009D000617220323120323032332031363A3137B1
:1009E0003A30372920534F555243455F434F4445D2
:1009F0005F55524C3A6769746875622E636F6D2F4C
:100A00004D61726C696E4669726D776172652F4DCA
:100A100061726C696E2050524F544F434F4C5F5679
:100A2000455253494F4E3A312E30204D41434849AB
:100A30004E455F545950453A54657374696E67204A
:100A40004D616368696E65204E616D65204558543F
:100A500052554445525F434F554E543A31205555F7
:100A600049443A63656465326132662D34316132DE
:100A70002D343734382D396231322D6335356336B4
:100A800032663336376666002F2F004D31343520FD
:100A9000533C696E6465783E206F7574206F6620E4
:100AA00072616E67652028302D31290A0046523A5E
:100AB0000020466C6F773A2000426162797374655A
:100AC00070205A0064697300656E0043290A006152
:100AD000626C656420286D696E2074656D702000FD
:100AE000436F6C64206578747275646573206172FD
:100AF0006520004F666673657473204170706C6981
:100B00006564004572723A20546F6F2066617221ED
:100B100000546F6F206661722066726F6D2072657F
:100B2000666572656E636520706F696E740A004554
:100B30004550524F4D204F4B0A004D383400446F02
:100B40006E65207072696E74696E672066696C6587
:100B50000A004D3737004D333100496E76616C69BC
:100B6000642065787472756465720A0020204D32C5
:100B70003036205800486F6D65206F666673657467
:100B8000004361703A00436F6F6C696E672E2E2EC2
:100B90000045312025530020573A00426564204328
:100BA0006F6F6C696E672E2E2E004265642048655B
:100BB0006174696E672E2E2E0023646566696E650A
:100BC0002044454641554C545F0000626564004B2B
:100BD0006420004B6920004B7020002066696E691C
:100BE00073686564212050757420746865206C6199
:100BF0007374204B702C204B6920616E64204B6411
:100C000020636F6E7374616E74732066726F6D20F3
:100C100062656C6F7720696E746F20436F6E6669D2
:100C20006775726174696F6E2E680A0050494420BE
:100C30004175746F74756E6500206661696C6564DA
:100C4000212074696D656F75740A00504944204114
:100C500075746F74756E6500206661696C656421DA
:100C60002054656D706572617475726520746F6F64
:100C700020686967680A00504944204175746F74A0
:100C8000756E6500504944204379636C6573002597
:100C9000532025692F256900204B643A2000204B02
:100CA000693A2000204B703A200020436C61737336
:100CB000696320504944200A00204E6F206F7665FA
:100CC0007273686F6F740A002054753A2000204BCD
:100CD000753A2000206D61783A2000206D696E3AE7
:100CE000200020643A200020626961733A200048A5
:100CF000656174696E672E2E2E00207374617274A4
:100D00000A00504944204175746F74756E65002067
:100D10006661696C6564212054656D7065726174EB
:100D200075726520746F6F20686967680A005049A2
:100D300044204175746F74756E65005049442041BC
:100D400075746F74756E6500206661696C656421E9
:100D500020426164206865617465722069640A00DC
:100D6000504944204175746F74756E650045727208
:100D70003A207574663820666F6E74206E6F74202A
:100D8000696E697469616C697A65642E0045727276
:100D90003A207574663820666F6E74206E6F74200A
:100DA000696E697469616C697A65642E0045727256
:100DB0003A207574663820666F6E74206E6F7420EA
:100DC000696E697469616C697A65642E0020003A05
:100DD000003A002568753A253032687500253032B2
:100DE00068753A25303268750025303268752725D8
:100DF0003032687500256875642025303268753A90
:100E000025303268750042656400456E636C6F730F
:100E1000757265004500200025002020202020203C
:100E200020002020202000657272001FE02010208A
:100E30001020101020102020102010303008400406
:100E40008003001FE03FF03FF03FF01FE01FE03F56
:100E5000F03FF03FF00FC0078003003FFFF0380085
:100E60007030FC3020FC102078102030102C00D086
:100E70002E31D02F7BD02F7BD02E31D02C00D02004
:100E8000301020781020FC1030FC303800703FFF0C
:100E9000F03FFFF0380070318630238710278790AD
:100EA0002F87D02F03D020301020781020781020EA
:100EB00030102F03D02F87D02787902387103186BB
:100EC000303800703FFFF01FFFF81FFFF80410409C
:100ED0000208200208200410400820801041001061
:100EE00041000820800410400000001FFFF81FFF91
:100EF000F85072696E742041626F72746564004DBF
:100F0000323520500A4D32340050617573696E6776
:100F10002E2E2E004D323400454550524F4D205656
:100F2000657273696F6E204572726F72004545502D
:100F3000524F4D20496E646578204572726F720081
:100F4000454550524F4D20435243204572726F72B7
:100F5000003F0049676E6F726500526573657400EB
:100F6000496E697469616C697A6520454550524FD4
:100F70004D004C6F6164206D6D00556E6C6F616447
:100F8000206D6D0046696C2E204469612E0045205D
:100F9000696E206D6D5E3300200820466163740029
:100FA0002008204D6178002008204D696E004F66B2
:100FB00066004F6E004175746F74656D70004D6909
:100FC0006E2054726176656C205370656564004DC7
:100FD000696E2056656C6F63697479004D61782085
:100FE00040205370656564004D6178204520416361
:100FF00063656C004D6178204020416363656C003F
:1010000054726176656C20416363656C005265744F
:101010007261637420416363656C00416363656C56
:10102000004D61782040204A65726B004020737447
:101030006570732F6D6D00416476616E6365642029
:1010400053657474696E6773003F0043616E636536
:101050006C00496E6974004D34323800496E697411
:1010600069616C697A6520454550524F4D0046696B
:101070006C616D656E740054656D70657261747538
:1010800072650053746570732F6D6D004A65726BE5
:1010900000416363656C65726174696F6E004D61D8
:1010A0007820537065656420286D6D2F7329005377
:1010B000657420486F6D65204F66667365747300B4
:1010C000436F6E66696775726174696F6E00426521
:1010D00064004E6F7A7A6C650046616E20537065CD
:1010E000656400436F6E66696775726174696F6EDF
:1010F00000526573746F72652044656661756C7427
:1011000073004C6F61642053657474696E6773007B
:1011100053746F72652053657474696E6773005001
:10112000726568656174202420436F6E66004164B7
:1011300076616E6365642053657474696E677300CD
:101140004D61696E004D37303220542564004D36B4
:10115000303020423020542564004D373032203B5F
:101160002564004D37303120542564004368616E9A
:1011700067652046696C616D656E740050726568C4
:1011800065617420437573746F6D00507265686596
:1011900061742024004261636B004D363030423070
:1011A00000436F6E74696E756500507572676520D7
:1011B0006D6F726500524553554D45204F5054494F
:1011C0004F4E533A005052494E54205041555345CA
:1011D00044002F00200020204E6F7A7A6C653A2060
:1011E00000000C0F00FE07022503BB017FFE08FE76
:1011F00008FE05080806000040F0C88888987810A6
:10120000050808060000C0F88888888888F8050561
:10121000050600012030F8302005080806000020EF
:1012200070F820202020E00509090600FF2070A8A2
:10123000A8B888887020070505070001D86C366CAF
:10124000D80509090600FFF8A88888888888A8F8C2
:10125000050A0A0600FE205050505088A8A8887041
:1012600003030306000340A040FFFFFFFFFFFFFF53
:10127000FFFFFFFFFFFFFFFFFFFFFFFFFFFFFF007D
:1012800000000605FF0107070602008080808080BD
:101290000080030303060105A0A0A00506060600C2
:1012A0000050F85050F8500509090600FF2070A8BA
:1012B000A07028A87020050707060000C8C81020E5
:1012C00040989805070706000040A0A040A8906835
:1012D0000103030602058080800309090601FF203F
:1012E00040408080804040200309090601FF804083
:1012F0004020202040408005070706000020A870FD
:101300002070A8200505050600012020F8202002F5
:1013100003030601FFC04080050101060003F80237
:101320000202060100C0C0050707060000081010F1
:1013300020404080050707060000708898A8C888EC
:101340007003070706010040C040404040E0050729
:1013500007060000708808102040F80507070600FF
:1013600000F80810300888700507070600001030E4
:101370005090F81010050707060000F880F00808E4
:101380008870050707060000304080F088887005E7
:101390000707060000F808101020202005070706A0
:1013A0000000708888708888700507070600007044
:1013B000888878081060020505060100C0C000C0DA
:1013C000C00206060601FFC0C000C040800305053C
:1013D0000601012040804020050303060002F800BA
:1013E000F803050506010180402040800507070637
:1013F00000007088102020002005070706000070FC
:1014000088B8A8B88070050707060000708888F8BB
:10141000888888050707060000F04848704848F0AB
:101420000507070600007088808080887005070720
:10143000060000F04848484848F005070706000045
:10144000F88080F08080F8050707060000F88080AB
:10145000F0808080050707060000708880809888EB
:1014600070050707060000888888F88888880307C1
:1014700007060100E04040404040E0050707060045
:1014800000381010101090600507070600008890C3
:10149000A0C0A0908805070706000080808080809B
:1014A00080F805070706000088D8A888888888057E
:1014B00007070600008888C8A898888805070706D7
:1014C000000070888888888870050707060000F08B
:1014D0008888F0808080050707060000708888886B
:1014E000A89068050707060000F08888F0A090889B
:1014F00005070706000070888070088870050707D8
:10150000060000F820202020202005070706000004
:10151000888888888888700507070600008888887A
:101520008850502005070706000088888888A8A8EA
:101530005005070706000088885020508888050756
:101540000706000088885020202020050707060095
:1015500000F80810204080F80309090601FFE08028
:10156000808080808080E005070706000080404082
:10157000201010080309090601FFE0202020202088
:101580002020E00503030600052050880501010620
:1015900000FEF8030303060105804020050505064B
:1015A000000070087888780507070600008080F042
:1015B000888888F005050506000070808088700521
:1015C000070706000008087888888878050505065A
:1015D00000007088F0807005070706000030484062
:1015E000E04040400507070600FE708888887808BC
:1015F000700507070600008080F088888888030748
:10160000070601004000C0404040E004090906010F
:10161000FE10003010101010906005070706000043
:1016200080808890E09088030707060100C0404052
:10163000404040E0050505060000D0A8A8A8A80580
:101640000505060000B0C888888805050506000065
:1016500070888888700507070600FEF0888888F083
:1016600080800507070600FE7888888878080805C6
:101670000505060000B0C88080800505050600004D
:1016800078807008F00507070600002020F8202069
:101690002018050505060000888888986805050556
:1016A0000600008888885020050505060000888807
:1016B000A8A8500505050600008850205088050799
:1016C000070600FE88888850204080050505060032
:1016D00000F8102040F80309090601FF20404040AF
:1016E00080404040200109090602FF808080808000
:1016F000808080800309090601FF8040404020402F
:1017000040408005030306000248A890FF5045545E
:10171000470041425300504C41005061726B696E6A
:10172000672E2E2E0000005761697420666F7200CC
:1017300066696C616D656E74206368616E676500D3
:10174000746F207374617274005761697420666FDE
:10175000720066696C616D656E7420756E6C6F6188
:101760006400004E6F7A7A6C652068656174696EFA
:101770006700506C6561736520776169742E2E2E49
:101780000000507265737320627574746F6E00741C
:101790006F2068656174206E6F7A7A6C650000490D
:1017A0006E736572742066696C616D656E7400613C
:1017B0006E6420707265737320627574746F6E004E
:1017C000746F20636F6E74696E756500576169741C
:1017D00020666F720066696C616D656E74206C6F57
:1017E00061640000507265737320427574746F6E8B
:1017F00000746F20726573756D65207072696E7408
:1018000000005761697420666F72207072696E748F
:1018100000746F20726573756D652E2E2E00004367
:101820006C69636B20746F2066696E69736800660B
:10183000696C616D656E7420707572676500003F3C
:10184000004261636B0053746F70003F004E4F00A5
:10185000594553004E6F204D6564696100507269AF
:101860006E742066726F6D204D6564696100436817
:10187000616E6765204D65646961004D32310043DA
:1018800068616E67652046696C616D656E740043C2
:101890006F6E66696775726174696F6E0054656D0D
:1018A0007065726174757265004D6F74696F6E005A
:1018B000526573756D65205072696E740054756E53
:1018C000650053746F70205072696E7400506175BA
:1018D0007365205072696E7400496E666F205363A1
:1018E0007265656E003F00537461727420507269B6
:1018F0006E740043616E63656C005072696E7400B3
:1019000043616E6E6F7420656E74657220737562CC
:101910006469723A200002202E2E004D61696E002B
:101920002100486F74656E6420746F6F20636F6C64
:1019300064004261636B0050726F63656564004DC3
:101940006F7665204578747275646572004D6F74AA
:10195000696F6E0044697361626C652053746570D1
:1019600070657273004D3834004732385A00473280
:10197000385900486F6D65204000473238580041A3
:1019800075746F20486F6D6500473238004D61698E
:101990006E005072656865617420242042656400A1
:1019A00050726568656174202420456E640054653A
:1019B0006D706572617475726500161712170D17D8
:1019C000436F6F6C646F776E005072656865617409
:1019D00020240046616E205370656564207E0042BD
:1019E0006564004E6F7A7A6C65004D61696E003AED
:1019F00000546F74616C0042616279737465702089
:101A00005A004261627973746570204000466C6FC1
:101A1000770046616E205370656564207E004265E4
:101A200064004E6F7A7A6C65005370656564004D92
:101A300061696E006F70656E0054524947474552A8
:101A40004544003A20007A5F6D617800795F6D69E6
:101A50006E00785F6D696E005265706F7274696EAA
:101A60006720656E6473746F70207374617475732E
:101A70000A0020746F6F206C6F6E67206578747237
:101A80007573696F6E2070726576656E7465640A31
:101A90000020636F6C6420657874727573696F6E73
:101AA0002070726576656E7465640A00000080C0FF
:101AB000000000C0000048435761726E696E673ACB
:101AC00020486F6D696E672042756D70204469769D
:101AD00069736F72203C20310A0002020400005139
:101AE0004300808043000057430000A0400000A056
:101AF000400000004053657474696E67732053742E
:101B00006F72656400290A002062797465733B2056
:101B1000637263200053657474696E677320537435
:101B20006F72656420280048617264636F64656445
:101B30002044656661756C742053657474696E67C2
:101B400073204C6F616465640044696769706F74E9
:101B5000205772697474656E0A0057726974696EF1
:101B6000672044696769706F740A0020286D6D29C9
:101B70000020460020420020480020204D3134350E
:101B80002053004D6174657269616C2068656174F1
:101B9000757020706172616D6574657273002020CC
:101BA0004D3134392043203B20556E6974732069D0
:101BB0006E2043656C736975730A0054656D7065BA
:101BC00072617475726520556E69747300202047C8
:101BD0003231203B004C696E65617220556E69742C
:101BE0007300454550524F4D206461746173697AAA
:101BF00065206572726F722E0A00290A00206279D0
:101C00007465733B2063726320002073746F726588
:101C1000642073657474696E677320726574726989
:101C200065766564202800202863616C63756C61AB
:101C300074656429210A0020213D20004545505249
:101C40004F4D20435243206D69736D61746368206A
:101C50002D202873746F7265642920002053697ADF
:101C6000653A2000496E6465783A20004449474946
:101C7000504F5453204C6F616465640A00444947D7
:101C800049504F5453204C6F6164696E670A0000DD
:101C9000009643000096430000A0410000F041334D
:101CA00033A0423333A042CDEC7B4400C0EB43B0C1
:101CB000040000B00400000A000000D0070000206B
:101CC0004D61726C696E3D563837290A00454550A2
:101CD000524F4D2076657273696F6E206D69736D1A
:101CE000617463682028454550524F4D3D002043A4
:101CF0006F756E7420583A004D6963726F73746526
:101D0000707320756E617661696C61626C650A0042
:101D10002045303A00205A3A0020593A0020583ADB
:101D2000004D53317C327C332050696E7300004289
:101D30006564004531004500626564002C207379BC
:101D40007374656D2073746F7070656421204865CD
:101D5000617465725F49443A20004572723A204DC1
:101D6000415854454D50004D415854454D502074F4
:101D700072696767657265640048656174696E675A
:101D8000204661696C65640048656174696E67200E
:101D90006661696C6564004572723A204D494E5423
:101DA000454D50004D494E54454D50207472696761
:101DB000676572656400202F002042403A00204091
:101DC0003A0020573A000009121B242D363F4841A3
:101DD0005A536C657E7719100B023D342F265158EB
:101DE000434A757C676E323B2029161F040D7A73B7
:101DF00068615E574C452B2239300F061D14636A0B
:101E00007178474E555C646D767F4049525B2C2556
:101E10003E3708011A137D746F6659504B42353CAA
:101E2000272E1118030A565F444D727B60691E17F6
:101E30000C053A3328214F465D546B627970070ECA
:101E4000151C232A31384148535A656C777E0900A6
:101E50001B122D243F3658514A437C756E6710196A
:101E6000020B343D262F737A6168575E454C3B3236
:101E700029201F160D046A6378714E475C55222B8A
:101E80003039060F141D252C373E0108131A6D64D6
:101E90007F7649405B523C352E2718110A03747D2A
:101EA000666F5059424B171E050C333A21285F5676
:101EB0004D447B7269600E071C152A233831464F4A
:101EC000545D626B707900002110422063308440C1
:101ED000A550C660E770088129914AA16BB18CC1F9
:101EE000ADD1CEE1EFF13112100273325222B55270
:101EF0009442F772D662399318837BB35AA3BDD349
:101F00009CC3FFF3DEE36224433420040114E6643F
:101F1000C774A44485546AA54BB528850995EEE598
:101F2000CFF5ACC58DD55336722611163006D7764F
:101F3000F6669556B4465BB77AA719973887DFF7E8
:101F4000FEE79DD7BCC7C448E5588668A778400817
:101F5000611802282338CCC9EDD98EE9AFF9488938
:101F600069990AA92BB9F55AD44AB77A966A711AAF
:101F7000500A333A122AFDDBDCCBBFFB9EEB799B88
:101F8000588B3BBB1AABA66C877CE44CC55C222CFF
:101F9000033C600C411CAEED8FFDECCDCDDD2AADD8
:101FA0000BBD688D499D977EB66ED55EF44E133E8F
:101FB000322E511E700E9FFFBEEFDDDFFCCF1BBF28
:101FC0003AAF599F788F8891A981CAB1EBA10CD102
:101FD0002DC14EF16FE18010A100C230E32004500A
:101FE000254046706760B9839893FBA3DAB33DC37D
:101FF0001CD37FE35EF3B1029012F322D23235425A
:10200000145277625672EAB5CBA5A89589856EF50C
:102010004FE52CD50DC5E234C324A01481046674A9
:10202000476424540544DBA7FAB79987B8975FE75C
:102030007EF71DC73CD7D326F2369106B0165766F9
:102040007676154634564CD96DC90EF92FE9C899E4
:10205000E9898AB9ABA94458654806782768C01849
:10206000E1088238A3287DCB5CDB3FEB1EFBF98BBC
:10207000D89BBBAB9ABB754A545A376A167AF10A99
:10208000D01AB32A923A2EFD0FED6CDD4DCDAABDCC
:102090008BADE89DC98D267C076C645C454CA23CE9
:1020A000832CE01CC10C1FEF3EFF5DCF7CDF9BAF9C
:1020B000BABFD98FF89F176E367E554E745E932E39
:1020C000B23ED10EF01E7C3C3E5E2B3D3F2F5B5D51
:1020D0003B2C2A225C004D6564696120496E69745D
:1020E000204661696C0053442063617264206F6B09
:1020F0000A006F70656E526F6F74206661696C655F
:10210000640A00766F6C756D652E696E6974206661
:1021100061696C65640A004E6F20534420636172EC
:10212000640A00534420636172642072656C6561C7
:102130007365640A000A4D3234004D323320257332
:10214000002E0A006F70656E206661696C65642CF4
:102150002046696C653A200046696C652073656CA1
:1021600065637465640A002053697A653A20004605
:10217000696C65206F70656E65643A2000454E4459
:1021800020535542524F5554494E450A0022207063
:102190006F73002220706172656E743A220053558D
:1021A00042524F5554494E452043414C4C20746196
:1021B000726765743A220053756263616C6C204FDC
:1021C000766572666C6F77004578636565646564F3
:1021D000206D617820535542524F5554494E452049
:1021E00064657074683A0057726974696E67207428
:1021F0006F2066696C653A200066726573680064DA
:102200006F696E67002066696C653A20004E6F77D3
:1022100020002F6175746F25632E67006D61726CED
:10222000696E66772E6F726700322E312E32001F74
:10223000FFFFFFFFFFFF600000000001FF40000004
:10224000000000FF8000000000007F83CF00000C32
:10225000303F87FF80000C301F867980000C000F14
:102260008C30C7838C30E78C30CFC7CC31F38C30C7
:10227000DCECEC33B98C30D86C6C33198C30D06C0E
:102280000C33198C30D86C0C33198C30DC6C0E3B51
:10229000198C30CF7C079F198C30C77C038F194075
:1022A000000000000002600000000000061FFFFFA9
:1022B000FFFFFFF870012C0190012701B0012201FE
:1022C000C0011D01F00118011002130130020E01BE
:1022D0006002090190020401C002FF000003FA003D
:1022E0004003F5008003F000D003EB002004E6007B
:1022F0007004E100E004DC004005D700C005D20016
:102300004006CD00D006C8008007C3003008BE00DC
:10231000F008B900C009B400B00AAF00B00BAA00C1
:10232000D00CA500000EA000500F9B00C01096001E
:102330005012910000148C00C0158700B017820065
:10234000B0197D00D01B7800001E730040206E0085
:1023500090226900F024640040275F0090295A0011
:10236000E02B5500102E500020304B00103246005C
:10237000E033410090353C001037370070383200B0
:10238000A0392D00B03A2800A03B2300603C1E007D
:10239000103D1900903D1400103E0F00703E0A00E1
:1023A000C03E0500003F0000403FFBFF803FF6FFBE
:1023B000C03FF1FF2020506C616E6E657242756601
:1023C00066657242797465733A20002046726565CD
:1023D000204D656D6F72793A200020436F6D7069F2
:1023E0006C65643A204D61722032312032303233D4
:1023F0000A00204C61737420557064617465643AFE
:1024000020323032322D31322D3137207C2041754F
:1024100074686F723A20284D32204D472D76302E49
:10242000302E33204D61726C696E2D76322E312E36
:1024300032202D20476172726574742030332F3240
:10244000312F32303233290A004D61726C696E20AF
:10245000322E312E320A0020536F66747761726516
:102460002052657365740A00205761746368646F55
:10247000672052657365740A002042726F776E2080
:102480006F75742052657365740A00204578746511
:10249000726E616C2052657365740A00506F7765C7
:1024A0007255700A0073746172740A0047323858AA
:1024B00059004D31303031006F6B006572726F72B0
:1024C0002077726974696E6720746F2066696C6525
:1024D0000A00446F6E6520736176696E67206669D5
:1024E0006C652E0A004D323900456E6473746F704E
:1024F0007300255320256320256320256320256351
:1025000000205A3A0020593A0020583A00656E647B
:1025100073746F7073206869743A200000000A0BAE
:1025200002090C0D0E080703040100000000000062
:10253000000000000000000000000000000000009B
:102540000000000000000000121110000000000058
:10255000000000000000000000000000000000007B
:10256000000000000000000000000000000000006B
:10257000000024F404D9201BC40C5C0E9804C40988
:102580005F0265077101F405F900FB04B30048041C
:102590008700C10369005803550003034500BE02CC
:1025A0003A008402310053022A0029022500040265
:1025B0002000E4011C00C8011900AF0117009801B8
:1025C0001400840113007101100061011000510119
:1025D0000E0043010D0036010B002B010B00200102
:1025E0000B00150109000C01090003010800FB00A4
:1025F0000800F3000800EB000700E4000600DE001E
:102600000600D8000600D2000600CC000500C70076
:102610000500C2000500BD000400B9000400B500BB
:102620000400B1000400AD000400A9000400A500EE
:102630000300A20003009F0004009B000300980019
:1026400003009500020093000300900003008D003A
:1026500002008B0003008800020086000200840054
:102660000300810002007F0002007D0002007B0069
:102670000200790002007700010076000200740079
:10268000020072000100710002006F0002006D0084
:1026900001006C0002006A0001006900020067008E
:1026A0000100660001006500010064000200620094
:1026B000010061000100600001005F0002005D0098
:1026C00001005C0001005B0001005A00010059009C
:1026D000010058000100570001005600010055009C
:1026E000010054000100530000005300010052009B
:1026F000010051000100500001004F0001004E0098
:1027000000004E0001004D0001004C0001004B0094
:1027100000004B0001004A00010049000100480090
:10272000000048000100470001004600000046008C
:102730000100450000004500010044000100430085
:10274000000043000100420000004200010041007F
:10275000000041000100400001003F0000003F0078
:1027600001003E0000003E0001003D0000003D0071
:1027700001003C0000003C0000003C0001003B0068
:1027800000003B0001003A0000003A00010039005F
:102790000000390001003800000038000000380057
:1027A000010037000000370001003600000036004D
:1027B0000000360001003500000035000000350043
:1027C0000100340000003400000034000100330038
:1027D000000033000000330001003200000032002E
:1027E0000000320001003100000031000000310023
:1027F00001003000000030000000300001002F0018
:1028000000002F0000002F0000002F0001002E000C
:1028100000002E0000002E0001002D0000002D0001
:1028200000002D0000002D0001002C0000002C00F5
:1028300000002C0000002C0001002B0000002B00E9
:1028400000002B0000002B0001002A0000002A00DD
:1028500000002A0000002A000100290000002900D1
:1028600000002900000029000000290001002800C4
:1028700000002800000028000000280000002800B8
:1028800001002700000027000000270000002700AB
:10289000000027000100260000002600000026009E
:1028A0000000260000002600010025000000250091
:1028B0000000250000002500000025000000250084
:1028C0000100240000002400000024000000240077
:1028D000000024000100230000002300000023006A
:1028E000000023000000230000002300000023005C
:1028F000010022000000220000002200000022004F
:102900000000220000002200010021000000210040
:102910000000210000002100000021000000210033
:102920000000210001002000000020000000200025
:102930000000200000002000000020000000200017
:102940000000200001001F0000001F0000001F0009
:1029500000001F0000001F0000001F0000001F00FB
:1029600001001E0000001E0000001E0000001E00EE
:10297000000024F4D43050C38E20C2A24017828BB2
:102980007011127A910D816CD90AA861E108C758BB
:102990006607615143061E4B5D05C145A7041A41F8
:1029A0001104093D9803713931034036DB02653368
:1029B0009102D4305402802E1D02632CEE01752A40
:1029C000C501B028A001102781018F2564012B24A7
:1029D0004B01E0223401AC211F018D200D01801F2D
:1029E000FC00841EED00971DDF00B81CD200E61B22
:1029F000C600201BBC00641AB200B219A8000A1954
:102A0000A0006A189900D117910040178B00B516E5
:102A1000840031167E00B31579003A157300C7148F
:102A20006F0058146A00EE136600881363002513C4
:102A30005E00C7125B006C12570015125400C111E2
:102A4000510070114F0021114B00D61049008D101C
:102A500047004610440002104200C00F4000800FA3
:102A60003E00420F3C00060F3B00CB0E3800930E99
:102A700037005C0E3500270E3400F30D3200C10D17
:102A80003100900D3000600D2E00320D2D00050D2F
:102A90002C00D90C2B00AE0C2900850C29005C0CF5
:102AA0002700350C27000E0C2600E80B2400C40B71
:102AB0002400A00B23007D0B23005A0B2100390BAF
:102AC0002100180B2000F80A1F00D90A1E00BB0ABB
:102AD0001E009D0A1D00800A1D00630A1C00470A93
:102AE0001B002C0A1B00110A1A00F7091A00DD0945
:102AF0001900C4091900AB091900920917007B09D4
:102B00001800630917004C09160036091600200941
:102B100016000A091500F5081500E0081400CC0895
:102B20001400B8081400A4081400900813007D08CD
:102B300012006B08130058081200460812003408EF
:102B40001100230811001208110001081100F007FC
:102B50001000E0071000D0071000C0071000B007F9
:102B60000F00A107100091070E0083070F007407E4
:102B70000F0065070E0057070E0049070E003B07C0
:102B80000D002E070E0020070D0013070D0006078D
:102B90000D00F9060C00ED060D00E0060C00D40651
:102BA0000C00C8060C00BC060C00B0060C00A40605
:102BB0000B0099060C008D060B0082060B007706B1
:102BC0000B006C060B0061060A0057060B004C0652
:102BD0000A0042060A0038060A002E060A002406E9
:102BE0000A001A060A001006090007060A00FD0579
:102BF0000900F4050900EB050900E2050900D90503
:102C00000900D0050900C7050900BE050900B50582
:102C10000800AD050800A50509009C0508009405FD
:102C200008008C050800840508007C050800740570
:102C300008006C050700650508005D0507005605DE
:102C400008004E0507004705070040050800380545
:102C50000700310507002A050700230507001C05AA
:102C60000600160507000F05070008050600020507
:102C70000700FB040600F5040700EE040600E80464
:102C80000600E2040700DB040600D5040600CF04BA
:102C90000600C9040600C3040600BD040600B7040C
:102CA0000600B1040500AC040600A6040600A0045A
:102CB00005009B04060095040500900406008A04A4
:102CC000050085040500800406007A0405007504EB
:102CD0000500700405006B0405006604050061042E
:102CE00005005C04050057040500520405004D046E
:102CF000050048040500430405003E0404003A04AE
:102D0000050035040500300404002C0405002704E8
:102D10000400230405001E0404001A040400160421
:102D20000500110404000D04040009040500040456
:102D3000040000040400FC030400F8030400F4038E
:102D40000400F0030400EC030400E8030400E403BF
:102D50000400E0030400DC030400D8030400D403EF
:102D60000400D0030400CC030400C8030300C5031F
:102D700003003A2E00007B1D0000181100004A09D4
:102D80000000DB0400007C02000041010000A10003
:102D900000004D6F766520246D6D00302E30323589
:102DA000004D6F766520302E316D6D004D6F76656C
:102DB00020316D6D004D6F76652031306D6D004DA9
:102DC0006F76652041786973004D6F7665202A0023
:102DD0004D6F76652040002000200020002000205C
:102DE0000000002200250028002B002E00310034B6
:102DF0000002010000050108010B01000021002470
:102E00000027002A002D00300033000101000004DB
:102E10000107010A0105050505070508080808025C
:102E20000202020A0A080804040404010101010163
:102E30000101010303030303030303040707070C52
:102E40000C0C0C0C0C0C0C02020202060606060608
:102E50000606060B0B0B0B0B0B0B0B07070A0A0ADC
:102E60000A0A0A05050504040408080102102020C6
:102E700008081020401020408002010201080402CE
:102E80000101020408102040808040201008040244
:102E9000018004020180402010080402010804029D
:102EA00001010204081020408001020408102040A3
:102EB0008010080408801020400440801020400446
:102EC00080486F6D696E67204661696C656400FFBC
:102ED000FF0143616E6E6F74206F70656E207375B5
:102EE000626469722000496E736572742066696C51
:102EF000616D656E7420616E6420707265737320FD
:102F0000627574746F6E0A00220A00556E6B6E6FE4
:102F1000776E20636F6D6D616E643A2022002045EC
:102F200000205A0020590020204D393220580053EB
:102F3000746570732070657220756E6974004572D7
:102F4000726F722077726974696E6720746F2045A2
:102F50004550524F4D210A0020746F6F206C6F6EE8
:102F60006720657874727573696F6E20707265760C
:102F7000656E7465640A0020636F6C642065787404
:102F8000727573696F6E2070726576656E746564B4
:102F90000A00544845524D414C2052554E4157412C
:102FA0005900546865726D616C2052756E6177616D
:102FB0007900486F6D652025732573257320466958
:102FC0007273740020453A00205A3A0020593A00A2
:102FD000583A006F6B0A00526573656E643A2000C0
:102FE00054657374696E67204D616368696E65200E
:102FF0004E616D652052656164792E005072696E74
:1030000074696E672E2E2E005072696E74205061A6
:103010007573656400003CEE26F711241FBECFEFE8
:10302000D1E2DEBFCDBF00E00CBF84B78093DB14DC
:1030300014BE0FB6F894A8958091600088618093C3
:103040006000109260000FBE13E0A0E0B2E0E4ED7B
:10305000F6E002E00BBF02C007900D92A63AB1075E
:10306000D9F724E1A6EAB3E001C01D92AB3DB20757
:10307000E1F718E1CCE0D8E100E006C021970109B2
:10308000802FFE010F941600CB30D10780E0080797
:10309000A9F70E940EEF0D9459030C9400000895B7
:1030A0000895CF93DF93EC01CB01BA010E94A5FBF9
:1030B00029EC38EC48EC5EE30F94FB0020E030E0B4
:1030C00040E05FE30F941F000F9468016883DF9175
:1030D000CF910895E091CA0786E0E802F00111243B
:1030E000E857F84F8091A40790E095838483089572
:1030F0008F929F92AF92BF92CF92DF92EF92FF9208
:10310000CF936B017C0120E030E0A9010E949FFB7E
:1031100087FDC3C06DEB77E386E095E3A7019601D9
:103120000F941F006B017C0120E030E0A9010E9498
:103130009FFB87FFB7C0C701B601905820E030E081
:1031400040E251E40E9404FC20E030E040E251E41F
:103150000E9404FC20E030E040EA50E40F941F009D
:1031600020E030E040E251E40F94FB000F94630153
:103170006B017C0160E280EAC81686E8D80681E02F
:10318000E806F1048CF0C701B60120EA36E841E018
:1031900050E00E949BFFCA01B9012AE030E040E004
:1031A00050E00E949BFF605D6093A80760E280E1B1
:1031B000C81687E2D806E104F1048CF0C701B60115
:1031C00020E137E240E050E00E949BFFCA01B901D4
:1031D0002AE030E040E050E00E949BFF605D609399
:1031E000A90760E288EEC81683E0D806E104F1047E
:1031F0008CF0C701B60128EE33E040E050E00E94B9
:103200009BFFCA01B9012AE030E040E050E00E9493
:103210009BFF605D6093AA0760E284E6C816D10454
:10322000E104F1048CF0C701B60124E630E040E08F
:1032300050E00E949BFFCA01B9012AE030E040E063
:1032400050E00E949BFF605D6093AB078AE0882E90
:10325000912CA12CB12CC701B601A50194010E94AB
:103260009BFFC62FCA01B901A50194010E949BFFD3
:10327000605D6093AC078EE28093AD07C05DC09344
:10328000AE0788EA97E0CF91FF90EF90DF90CF9064
:10329000BF90AF909F908F9008956DEB77E386E09D
:1032A00095EB3CCF20E030E040E251E4C701B601AD
:1032B00049CFCF93DF93EC01CB01BA010E94A5FB6C
:1032C00020E030E040E251E40F94FB006883798312
:1032D0008A839B83DF91CF9108950E94A5FB20E014
:1032E00030E040E251E40F94FB0002CFCF93DF9334
:1032F000EC01CB01BA010E94A5FB688379838A8324
:103300009B83DF91CF910895CF93DF93EC01CB01A5
:10331000BA010E94A5FB688379838A839B83DF912E
:10332000CF910895CF93DF93EC01CB01BA010E94B6
:10333000A5FB20E030E048EC52E40F94FB006883EA
:1033400079838A839B83DF91CF910895CF93DF9315
:10335000EC01CB01BA010E94A5FB20E030E048EC73
:1033600052E40F94FB00688379838A839B83DF9107
:10337000CF910895CF93DF93EC01CB01BA010E9466
:10338000A5FB2AE037ED43E25DE30F94FB000F94C9
:103390006801688379838A839B83DF91CF91089545
:1033A000CF93DF93EC01CB01BA010E94A5FB2AE089
:1033B00037ED43E25DE30F94FB00688379838A83F2
:1033C0009B83DF91CF910895CF93DF93EC01CB01E5
:1033D000BA010E94A5FB688379838A839B83DF916E
:1033E000CF910895CF93DF93EC01CB01BA010E94F6
:1033F000A5FB0F94630179836883DF91CF910895D2
:10340000CF93DF93EC01CB01BA010E94A5FB20E032
:1034100030E04AE754E40F94FB00688379838A83A1
:103420009B83DF91CF910895FC0184910895FC0165
:1034300080810895FC01A081B1811C92A281B38199
:103440008C918F5F8C930280F381E02D90818CE0D2
:10345000989F800D1124E5EEF2E113AE84AF08953C
:10346000009751F0FC0180E09191992331F0907C1C
:103470009038D1F38F5FF8CF80E0089590910501E7
:1034800094709093030100C087FD7FC0A398909132
:103490000501909594709093030100C000C0909135
:1034A000050194709093030100C086FD7AC0A39833
:1034B00090910501909594709093030100C000C015
:1034C0009091050194709093030100C085FD67C041
:1034D000A39890910501909594709093030100C07A
:1034E00000C09091050194709093030100C084FD89
:1034F00054C0A39890910501909594709093030106
:1035000000C000C09091050194709093030100C029
:1035100083FD41C0A398909105019095947090937C
:10352000030100C000C090910501947090930301C5
:1035300000C082FD2EC0A3989091050190959470D3
:103540009093030100C000C0909105019470909386
:10355000030100C081FD1BC0A398809105018095E7
:1035600084708093030100C000C0809105018470C5
:103570008093030100C0A398809105018095847019
:103580008093030100C000C00895A39A80CFA39A3E
:10359000E4CFA39AD1CFA39ABECFA39AABCFA39ADD
:1035A00098CFA39A85CF90E080E00895CF93DF93E2
:1035B000C0917907D0917A0781E0CE31D105E4F04E
:1035C00020E030E040E05FE360917507709176079E
:1035D00080917707909178070F941F000F946301F3
:1035E0006C1B7D0B77FF03C071956195710981E0BC
:1035F000633071050CF080E0DF91CF910895CF9397
:10360000DF93DB01F9019C919130C1F0943080F09F
:1036100094509C938830D1F480819181009771F00F
:10362000019791838083480F591FEA01188206C0D1
:103630008C3539F49C5F9C93943041F4DF91CF91A9
:1036400008958B3339F781E08C93F8CF2081318155
:10365000B9016F5F7F4F71836083420F531FEA018F
:103660008883808191818F3591056CF7E7CF0F9327
:103670001F9381E0009138141091391420913A146D
:1036800030913B14409134145091351460913614AC
:1036900070913714041715072607370708F480E0E0
:1036A0001F910F91089590E080E008952091D0043B
:1036B000833021F425FD0CC024FD0CC030E0A901AD
:1036C00002C0559547958A95E2F7CA018170089521
:1036D00081E0089580E008958091EB0484FD0BC0A3
:1036E0008091ED0487FD07C09091EE04937081E016
:1036F00019F480E0089581E008952FEB280F2A3116
:1037000008F047C0E22FF0E08091EB049091EC04C8
:10371000A091ED04B091EE0404C0B695A7959795DD
:1037200087952A95D2F780FD02C081700895EF52E7
:10373000FB4FE081EE2341F1809113089091140832
:10374000E80FF92FF11D808190ED980F9A3030F03D
:103750008E3251F4818180538A3098F4F093CE04F4
:10376000E093CD0481E008958D3211F08B3249F45D
:10377000818190ED980F9A3088F38E3211F4828116
:10378000EACFF0E0E0E0EACF1092CE041092CD0450
:10379000E9CF80E0089580914602882341F060914E
:1037A00077057091780541E081E00C9454D5089537
:1037B000CF92DF92EF92FF920E94A5FB6B017C01FA
:1037C00020E030E0A9010E949FFB2DEB37E346E0AB
:1037D00055E387FF04C02DEB37E346E055EBC70107
:1037E000B6010F941F006B017C0120E030E0A901BD
:1037F0000E949FFB20E030E040E05FE387FF04C0D1
:1038000020E030E040E05FEBC701B6010F941F00FD
:103810000F946301CB01FF90EF90DF90CF900C9459
:103820004EAF0E94A5FB0F946301CB010C944EAFE9
:103830000E94A5FB29EC38EC48EC5EE30F94FB00FA
:1038400020E030E040E05FE30F941F000F94680138
:10385000862F0C9483AFCF93DF9300D01F92CDB708
:10386000DEB70F9468010E94A3FB69837A838B8380
:103870009C83CE0101960E9412AD0F900F900F9085
:103880000F90DF91CF9108950E94A5FB2AE037EDBC
:1038900043E25DE30F94FB00DECFCF92DF92EF9225
:1038A000FF92CF93DF9300D01F92CDB7DEB76B01AD
:1038B0007C0120E030E0A9010E949FFB87FD1BC036
:1038C0006DEB77E386E095E3A70196010F941F0067
:1038D00069837A838B839C83CE0101960E9412AD0B
:1038E0000F900F900F900F90DF91CF91FF90EF907E
:1038F000DF90CF9008956DEB77E386E095EBE4CF12
:103900000E94A5FB2AE037ED43E25DE30F94FB0044
:10391000C4CF0E94A5FBC1CFCF92DF92EF92FF925E
:103920006B017C0120E030E0A9010E949FFB87FD34
:1039300026C06DEB77E386E095E3A70196010F942F
:103940001F006B017C0120E030E0A9010E949FFB79
:1039500020E030E040E05FE387FF04C020E030E09B
:1039600040E05FEBC701B6010F941F000F946301A5
:10397000CB01FF90EF90DF90CF900C94CFAE6DEB2A
:1039800077E386E095EBD9CF0E94A5FBC5CFCF9218
:10399000DF92EF92FF92CF93DF9300D01F92CDB7CB
:1039A000DEB70E94A5FB20E030E048EC52E40F9423
:1039B000FB006B017C0120E030E0A9010E949FFB2D
:1039C0002DEB37E346E055E387FF04C02DEB37E3EB
:1039D00046E055EBC701B6010F941F0069837A8357
:1039E0008B839C83CE0101960E946DAC0F900F904B
:1039F0000F900F90DF91CF91FF90EF90DF90CF90DD
:103A00000895CF92DF92EF92FF92CF93DF9300D091
:103A10001F92CDB7DEB70E94A5FB20E030E048EC56
:103A200052E40F94FB006B017C0120E030E0A9011F
:103A30000E949FFB2DEB37E346E055E387FF04C070
:103A40002DEB37E346E055EBC701B6010F941F009D
:103A500069837A838B839C83CE0101960E9495AD06
:103A60000F900F900F900F90DF91CF91FF90EF90FC
:103A7000DF90CF900895CF92DF92EF92FF92CF9395
:103A8000DF9300D01F92CDB7DEB70E94A5FB20E0E8
:103A900030E04AE754E40F94FB006B017C0120E026
:103AA00030E0A9010E949FFB2DEB37E346E055E390
:103AB00087FF04C02DEB37E346E055EBC701B601A5
:103AC0000F941F0069837A838B839C83CE010196B8
:103AD0000E94BED60F900F900F900F90DF91CF9164
:103AE000FF90EF90DF90CF9008950C9409970C947D
:103AF00009970C94BB960C94BB960C94BB960C94B3
:103B0000BB9663E972E084E690E00E94D2B370E075
:103B100060E08AE090E00E94D2B36AEB72E084E653
:103B200090E00C94D2B38111ECCF68E270E080E9B0
:103B300091E00C94D2B30E94D393F5CF0E94B2AB24
:103B4000F2CF0E941CAADDCFCF92DF92EF92FF92BC
:103B50000F931F930E947ADB0091F9041091FA04ED
:103B60002091FB043091FC046B017C01C01AD10A46
:103B7000E20AF30A9701860137FD11C02091F8048B
:103B800020952093F8046A547C4F8F4F9F4F609389
:103B9000F9047093FA048093FB049093FC0481E091
:103BA0009091F804911101C080E01F910F91FF9056
:103BB000EF90DF90CF900895BF92CF92DF92EF9277
:103BC000FF920F931F93CF93DF936B01E9014A306C
:103BD00009F4D6C0453109F081C0DB011296ED91A0
:103BE000FC911281C681D781A49A00C0000086E2B0
:103BF00090E00197F0F7012F0295007F20E1B22EAF
:103C0000B10E88EF3BDC00C0000086E290E0019737
:103C1000F0F7103208F0A1C0812F807780682EDC89
:103C2000802F2CDC00C0000086E290E00197F0F7C6
:103C300080E824DC80E022DC00C0000086E290E026
:103C40000197F0F78AEF1ADC00C0000086E290E0EE
:103C50000197F0F77E01B0E1EB0EF11C8881807FC7
:103C60000DDC89918295807F09DCCE15DF05B1F7E7
:103C700000C0000086E290E00197F0F71F5F005F50
:103C80001B11BFCFA498D6011296ED91FC918081B3
:103C90009281980F92832181921708F02DC294810E
:103CA0009F5F94839381890F821710F08FEF820FAB
:103CB0008383458150E0440F551F70E060E08681AA
:103CC00097810F94050381E0DF91CF911F910F91B0
:103CD000FF90EF90DF90CF90BF900895FB0102819D
:103CE0001381423309F40AC208F412C2463409F4BB
:103CF000FFC1473409F407C24B3329F789812B816F
:103D0000D80112967C91129713963C91213009F4B8
:103D100044C2233009F025C248EF480F582F91E0E4
:103D2000341708F490E031E0541708F030E0492FE0
:103D3000432B61E0571708F460E0462319F49323FE
:103D400009F4C1CFFA8030E0F901EE54FD4FD08084
:103D500022553D4FF901E0801DC280EE810F806841
:103D6000807F8CDB812F8295807F88DB00C0000004
:103D700086E290E00197F0F780E880DB80E85BCF97
:103D80009C9AA4989B9AA398809104018460809344
:103D90000401809105018095847080930301A49AA9
:103DA00000C0000086E290E00197F0F788E790E01D
:103DB000CEE9DFE0FE013197F1F70197D9F788EFFF
:103DC0005DDB00C0000086E290E00197F0F780E242
:103DD00055DB80E053DB00C0000086E290E00197F5
:103DE000F0F780E04BDB80E849DB00C0000086E2B2
:103DF00090E00197F0F780E041DB80E13FDB00C01D
:103E0000000086E290E00197F0F7CE010197F1F70C
:103E1000CE010197F1F7CE010197F1F7CE0101979D
:103E2000F1F7CE010197F1F7CE010197F1F7CE013D
:103E30000197F1F7CE010197F1F7CE010197F1F764
:103E4000CE010197F1F7CE010197F1F7CE0101976D
:103E5000F1F7CE010197F1F7CE010197F1F7219724
:103E6000F1F780E20BDB80E409DB00C0000086E2B2
:103E700090E00197F0F780E201DB80E6FFDA00C016
:103E8000000086E290E00197F0F7D0E0C0E08C2FD0
:103E900080778068F3DA8D2FF1DA00C0000086E2C7
:103EA00090E00197F0F780E8E9DA80E0E7DA00C017
:103EB000000086E290E00197F0F78AEFDFDA00C0B9
:103EC000000086E290E00197F0F790E28091050112
:103ED00084708093030100C0A398809105018095B0
:103EE00084708093030100C000C08091050184703C
:103EF0008093030100C0A398809105018095847090
:103F00008093030100C000C08091050184708093FC
:103F1000030100C0A398809105018095847080936F
:103F2000030100C000C080910501847080930301EB
:103F300000C0A3988091050180958470809303014F
:103F400000C000C08091050184708093030100C00F
:103F5000A39880910501809584708093030100C02F
:103F600000C08091050184708093030100C0A39874
:103F700080910501809584708093030100C000C08A
:103F80008091050184708093030100C0A398809103
:103F90000501809584708093030100C000C080916A
:103FA000050184708093030100C0A39880910501EE
:103FB000809584708093030100C000C0809105014A
:103FC00084708093030100C0A398809105018095BF
:103FD00084708093030100C000C08091050184704B
:103FE0008093030100C0A39880910501809584709F
:103FF0008093030100C000C080910501847080930C
:10400000030100C0A398809105018095847080937E
:10401000030100C000C080910501847080930301FA
:1040200000C0A3988091050180958470809303015E
:1040300000C000C08091050184708093030100C01E
:10404000A39880910501809584708093030100C03E
:1040500000C08091050184708093030100C0A39883
:1040600080910501809584708093030100C000C099
:104070008091050184708093030100C0A398809112
:104080000501809584708093030100C000C0809179
:10409000050184708093030100C0A39880910501FD
:1040A000809584708093030100C000C000C00000B0
:1040B000E6E2F0E03197F0F7915009F007CF88EF92
:1040C000DDD900C0000086E290E00197F0F7CF5FF5
:1040D000D05FC03209F0DBCE80E0D0D980ECCED901
:1040E00000C0000086E290E00197F0F7A498EBCDC5
:1040F000F80185818883E7CD80E0E6CDB901C8016C
:104100000E94AEDCE0CDD80111968C918883DBCD86
:10411000443191F0473109F0D6CD1882D80112967A
:104120008C911297898315968C91159781508A836B
:1041300013968C918B83C7CDD80115964C9115970A
:1041400050E0440F551F70E060E016968D919C91F1
:104150000F940503F80112828081815083831482B9
:10416000B2CD381708F4AFCD871708F4ACCDFA807C
:10417000E12CD12C243070F4E6CDBE01C8010E94A0
:10418000AEDC898198819D0D98838E0D8983FF0C0B
:1041900009F499CDF7FEF6CFF0CF58E0580F482F2D
:1041A000BECDEF92FF920F931F93CF93DF93EC015D
:1041B0008B017A018A859B858617970731F0888164
:1041C00099810E94E0DE1B870A87B7018881998167
:1041D0000E940CD62E813F81820F932F911D9F83C9
:1041E0008E8390E080E0DF91CF911F910F91FF903F
:1041F000EF9008959F92AF92BF92CF92DF92EF928D
:10420000FF920F931F93CF93DF93EC018B01942EBA
:10421000A52E8A859B858617970731F0888199811D
:104220000E94E0DE1B870A8788859985019649F5FB
:10423000BC800A818E81080FC880D980D60155962E
:10424000ED91FC91C6011995B80EE92CFA2C10E0FD
:10425000F70121917F01211127C08E819F81810F5C
:10426000911D9F838E8390E080E0DF91CF911F911D
:104270000F91FF90EF90DF90CF90BF90AF909F9005
:1042800008950E811F81692D7A2D888199810E9460
:104290000CD6800F912F911D288539852817390755
:1042A00038F681E090E0E1CF4B2D602FC6010E94EF
:1042B00038DF080F180FCCCFDF92EF92FF920F93E9
:1042C0001F93CF93DF93EC01D62E1CAD0BAD7C0179
:1042D00084E0E80EF11CE98DFA8DC7011995412F94
:1042E000480F2D2D602FC7010E9438DF9BAD890F2D
:1042F0008BAF81E090E0DF91CF911F910F91FF9004
:10430000EF90DF9008952F923F924F925F926F92BD
:104310007F928F929F92AF92BF92CF92DF92EF9255
:10432000FF920F931F93CF93DF93CDB7DEB72D97F7
:104330000FB6F894DEBF0FBECDBF80912212813040
:1043400031F080913C1482FF6EC087FD6CC00E94EA
:10435000BDAB4B015C0145E050E060E270E081E004
:1043600095E00F94050385E48093FF048AE380932E
:104370000005C501B40120E13EE040E050E00E94AC
:1043800079FFD22EC32E022F132F8CE3282E312C2F
:10439000412C512CC501B401A20191010E9479FF69
:1043A000762E672ECA01B901A20191010E9479FF00
:1043B0009E012F5F3F4F790130E8831631E5930668
:1043C00031E0A306B10408F447C07F936F93C8019E
:1043D00068E170E00E94EFFF9F938F93C501B401E5
:1043E00020E831E541E050E00E9479FF3F932F93B0
:1043F00085EF9DE09F938F93FF92EF920E9438FB91
:10440000C7010E94EEFA0FB6F894DEBF0FBECDBF13
:104410002CE030E0A901481B5109CA01B7018150C5
:104420009B4F0F942A032D960FB6F894DEBF0FBE54
:10443000CDBFDF91CF911F910F91FF90EF90DF9053
:10444000CF90BF90AF909F908F907F906F905F9034
:104450004F903F902F9008950115110599F46F9298
:104460007F927F936F9389EE9DE09F938F93FF924E
:10447000EF920E9438FB0FB6F894DEBF0FBECDBF9F
:1044800085E0C6CF0436110538F47F936F93CF9241
:10449000DF928DED9DE0E9CF7F936F93CF92DF9216
:1044A00083ED9DE09F938F93FF92EF920E9438FBE4
:1044B0000FB6F894DEBF0FBECDBF86E0A9CFCF9375
:1044C000C0910D05CC2391F14CE050E060E270E02A
:1044D0008FEF94E00F94050380E2C43628F08C2F10
:1044E00064E60E94D6FF805D8093AC0790E2CA30FC
:1044F00040F02AE08C2F622F0E94D6FF0E94D6FF48
:10450000905D9093AD078C2F6AE00E94D6FF905D7E
:104510009093AE0783E0ECEAF7E0A3E0B5E001900A
:104520000D928A95E1F785E280930605CF91089573
:10453000CF938091F504811154C0109220131092F2
:104540002113109222131092EE121092ED1210927B
:10455000F0121092EF121092F21281E08093F11299
:1045600082E28093F3121092F8121092F712ECE0AC
:10457000F3E12AE133E18FEF81932E173F07E1F753
:10458000C1E0C09309132AEC3FEB3093FF12209354
:10459000FE12C0930013109201131092021390E4C4
:1045A000909303131092041329EC3FEB30931B13E9
:1045B00020931A1325E132E03093EC122093EB1292
:1045C00098E49093101397E49093111396E49093CA
:1045D0000E1380930D1380930C130E94ECDCC09398
:1045E000F50481E08093F7048DEC9DE090935212E6
:1045F000809351121092541210925312CF91089539
:10460000CF92DF92EF92FF920F931F93CF93DF939E
:10461000CDB7DEB72C970FB6F894DEBF0FBECDBF77
:10462000F0902013E09021132091F70421111DC078
:104630004DE85DE06E2D8F2D0E94A3DF90E080E0BD
:10464000F80EF0922013E092211399272C960FB6C2
:10465000F894DEBF0FBECDBFDF91CF911F910F91B8
:10466000FF90EF90DF90CF900895C090ED12D09022
:10467000EE1229EE32E13A8329832F2D30E03C837C
:104680002B832E2D30E03E832D8318861F827A8760
:1046900069871C861B860AEF10E29E012F5F3F4F41
:1046A00044E15AE1BC01C6010E9415CFB60189EE72
:1046B00092E10E94E0DE8F819885C2CF8091CD0487
:1046C0009091CE04009731F04AE050E070E060E055
:1046D0000C94C0F960E070E0CB0108958091CD04A6
:1046E0009091CE04009731F04AE050E070E060E035
:1046F0000C9495F860E070E0CB010895EFDFCB01FA
:104700000895ECDF97FD0AC0E9DF6F3F7105810571
:10471000910509F02CF4E2DF862F089580E00895DA
:104720008FEF0895EF92FF920F931F93CF93DF9334
:1047300000D000D000D01F921F92CDB7DEB77C0111
:1047400020917A05422F022E000C550B80917B059B
:10475000833099F1843051F18EE491E15F932F938E
:104760009F938F938E010F5F1F4F1F930F930E9494
:1047700038FBC7010E9411B44FE350E0B8018FE24B
:1047800097E00F943F030F900F900F900F900F90B2
:104790000F902B960FB6F894DEBF0FBECDBFDF9102
:1047A000CF911F910F91FF90EF9008958AE591E1CD
:1047B00027FDD4CF85E491E1D1CF83E691E1CECF3F
:1047C000E091CA0786E0E802F0011124E857F84FAB
:1047D00080819181A7CF8091030890910408A2CF96
:1047E000CF93DF93CDB7DEB720E2488559856F813F
:1047F0008E810E94B9D5DF91CF910895282F8FEF38
:10480000809326021092C8078091B3079091B40755
:10481000A091B507B091B607B7FF08C01092B307D3
:104820001092B4071092B5071092B60780917D05DB
:10483000882331F08091B3078093A0071092C307BB
:1048400080919A071816FCF4082E000C990B821B15
:1048500091092091A007022E000C330B281739076D
:1048600094F097FF02C090E080E08093A007092EAB
:10487000000CAA0BBB0B8093B3079093B407A093D3
:10488000B507B093B6078091A0076623A9F0909171
:10489000A107891714F48093A1072091A107022E84
:1048A000000C330B2C5F3F4F482F082E000C550B8C
:1048B000241735071CF484508093A1070895AF9204
:1048C000BF92CF92DF92EF92FF920F931F93CF93FD
:1048D000DF9361E081E092DFC091A10705E00C0F5A
:1048E000D1E081EAE82E81E1F82E12E01C1B9AEA61
:1048F000C92E91E1D92EBD2EBC1AAC2EA194C111A6
:104900002EC0DD23D9F08091A0071816BCF040918D
:10491000B3075091B4076091B5077091B6074F5F28
:104920005F4F6F4F7F4F4093B3075093B40760932F
:10493000B5077093B6078F5F8093A00780914602FA
:10494000882331F041E065EB71E18A2D0E9454D556
:10495000CF5F0C13D4CF83E080939A071DC0C13082
:1049600031F59091A007913069F08091460288233B
:10497000B1F11F92DF92CF92BF9281E0913041F16D
:1049800080E026C080919B0710929B07882369F3E3
:104990008091C307882349F3DF91CF911F910F9135
:1049A000FF90EF90DF90CF90BF90AF900895C2300E
:1049B00079F69091A0079230A1F080914602882369
:1049C00071F01F92FF92EF921F9381E09230C1F637
:1049D0008F9306DF0F900F900F900F900F90D0E005
:1049E000B7CF80919B0710929B07882331F380916A
:1049F000C307882311F3D0CF0F931F93522F209119
:104A0000E3123091E4122817390741F110927E0524
:104A10009093E4128093E3128B0130E020E0009346
:104A2000B3071093B4072093B5073093B6074093AC
:104A3000A10750939A078158974421F41092D20706
:104A40001092760582E08093460281E08093C3074E
:104A500010927C0580932602109279051F910F9188
:104A6000089520E040E070E060E081E897E4C4CF82
:104A7000CF930E941CAA0E94D393C82F882319F0B9
:104A800080E00E943B938C2F4ED8CF91EACF87E5F0
:104A900090E190932E0780932D07E3CFCF93DF9380
:104AA000C0917605CC23B1F0C150C093760589E062
:104AB000C89FE0011124C05CDA4F6A817B812F819D
:104AC0004E818881998198DF88858093D207DF9114
:104AD000CF910895DF91CF91C4CFE0917605E63074
:104AE00028F581E08E0F809376054091B3075091B1
:104AF000B4076091B5077091B6072091A107909116
:104B00009A078091D20739E0E39FF0011124E05C1D
:104B1000FA4FA091E312B091E412B183A0834283D3
:104B20005383648375832683978380870895809356
:104B3000A40720E040E070E060E080E29AE25CCF11
:104B4000CF93DF93CDB7DEB78E81282F082E000CD0
:104B5000330B909150129217130609F08CF4809346
:104B600050129E01275F3F4F4F8158856AE270E0E7
:104B700085E292E10E9467FB1092241210922312A8
:104B8000DF91CF9108950F931F93CF93DF938C0103
:104B90006F3F19F41092501260E020915012862F4E
:104BA000062E000C990B2817190609F014F56093CE
:104BB0005012C8010E94EEFA800F911FEC01C01B39
:104BC000D10BCB32D1053CF00197FC012491207C24
:104BD0002038D1F3F3CFDD27AE01B80185E292E1B1
:104BE0000E940FFBCB5DDD4E1882109224121092B2
:104BF0002312DF91CF911F910F910895CF93809150
:104C00003805811109C089E09FE090937805809371
:104C1000770581E08093380560DF20E040E070E0B8
:104C200060E08BEC9BE1E8DEC1E0C093D2070E941C
:104C30002C971092D20732DFC093D20760E088E051
:104C400090E3A1DF40E061E080E00E9450BD8FEF83
:104C50009EE090932E0780932D07CF9108950F9398
:104C60001F930E947ADB0091340510913505209145
:104C7000360530913705601B710B820B930B97FD46
:104C800013C08091030185FB882780F991E0892773
:104C90009091030196FF82609091030194FF02C0FE
:104CA000629B84608093330580913305817090917D
:104CB000330591FD826090913205981749F081305B
:104CC00029F148F0823089F08330A1F080933205D9
:104CD0001F910F910895913089F09230B9F790911A
:104CE000310520912602921B0EC0992339F0933092
:104CF000B1F3ECCF913099F3923041F790913105B7
:104D000020912602920F90933105E0CF992339F339
:104D10009330E1F6F3CFCF92DF92EF92FF92CF93F1
:104D2000C82F0E947ADB6B017C0124EA30E74DE753
:104D30005FE360912702709128028091290290918F
:104D40002A020E949FFB87FD18C08AEF90E0A0E036
:104D5000B0E08C0D9D1DAE1DBF1D8093210590936D
:104D60002205A0932305B0932405C0931C02CF9184
:104D7000FF90EF90DF90CF90089580E090E0DC010D
:104D8000E8CFCF93DF93D4DBE4E0F1E080818F7D47
:104D90008083C5E0D1E0888180958072A3E0B1E096
:104DA0008C9380818F7B80838881809580748C93A5
:104DB0006A98729A80818F7E8083888180958071C5
:104DC0008C934DDF10923105DF91CF910C9479CF08
:104DD000FC0180E0309749F09491992331F0907C68
:104DE000903809F08F5F3196F7CF0895AF92BF9258
:104DF000CF92DF92EF92FF920F931F93CF93DF93A7
:104E0000EC015B018A01FB01199587FD16C0C82ED4
:104E1000D12CF12CE12C2196F801C082D182E282C2
:104E2000F382CE01DF91CF911F910F91FF90EF9010
:104E3000DF90CF90BF90AF900895982F907E903CD8
:104E4000A9F48F7190E0B0E0A0E06C017D0156E024
:104E5000CC0CDD1CEE1CFF1C5A95D1F7CE0101963F
:104E6000F50119958F73C82A2296D6CF982F907F77
:104E7000903E11F58F7090E0B0E0A0E06C017D01F4
:104E800036E0CC0CDD1CEE1CFF1C3A95D1F7CE01B0
:104E90000196F50119958F73C82A46E0CC0CDD1CEC
:104EA000EE1CFF1C4A95D1F7CE010296F50119952B
:104EB0008F73C82A2396B0CF982F987F903F79F5AB
:104EC000877090E0B0E0A0E06C017D0186E0CC0C42
:104ED000DD1CEE1CFF1C8A95D1F7CE010196F50171
:104EE00019958F73C82A96E0CC0CDD1CEE1CFF1CB4
:104EF0009A95D1F7CE010296F50119958F73C82ABC
:104F000026E0CC0CDD1CEE1CFF1C2A95D1F7CE014F
:104F10000396F50119958F73C82A24967DCF982F93
:104F2000907C903841F4807C803869F42196CE01E1
:104F3000F5011995F8CF8E7F8D3F28F02196CE018F
:104F4000F5011995F8CFC12CD12C760165CF20E061
:104F500030E040E05FE36091FF07709100088091CE
:104F60000108909102080F941F000F946301CB0178
:104F700008959CE0899F802D112491E0980F9093D3
:104F8000F6042CE0280F2093C90730E02E5F3F4F36
:104F900040911D134217130619F014F080E0089594
:104FA00020911F139217D0F7662341F08E5F0E9465
:104FB0000EDE8091C9078E5F0E940EDE8091C907C8
:104FC00090911D13891750F320911F139091F604AF
:104FD000291720F3109220138093211381E0089564
:104FE0002091F404022E000C330B8217130641F0BB
:104FF0008093F40461EE71E189EE92E10C94E0DEBD
:105000000895EF92FF920F931F93CF93DF93CDB745
:10501000DEB72C970FB6F894DEBF0FBECDBFFC01F4
:1050200060817181828193816F3F71058105910556
:1050300009F0B8F485EE92E13FD9E091ED12F091DC
:10504000EE123196849190E02C960FB6F894DEBF64
:105050000FBECDBFDF91CF911F910F91FF90EF90C9
:10506000089510912013009121132091F70421112C
:105070000FC04DEA5DE0602F812F0E94A3DF90E01A
:1050800080E0180F10932013009321139927DCCF91
:10509000E090ED12F090EE1229EE32E13A8329838E
:1050A000212F30E03C832B83202F30E03E832D8363
:1050B00018861F822FEF3FEF3A8729871C861B86B1
:1050C0002AEF30E2AE014F5F5F4FBF01C7010E9480
:1050D00050CEB70189EE92E10E94E0DE8F81988583
:1050E000D0CF4F925F926F927F928F929F92BF929A
:1050F000CF92DF92EF92FF920F931F93CF93DF93A4
:1051000000D000D01F921F92CDB7DEB77C016A019C
:105110004901FB0190818CE0989F800D1124982F0C
:10512000F7012081822F880F820F880F8093201330
:10513000909321134115510569F1FA82E9827C832C
:105140006B83011120C0AE014B5F5F4FB401C601FC
:105150004DDE6C018D819E81AF81B885892B8A2BB4
:105160008B2BC1F0CE0105964CDFF70180818F5F5C
:105170008083853140F3CE0101960E941A1AE3CF55
:10518000B12C860129C08A01B12C26C045284628A9
:105190004728B1F728960FB6F894DEBF0FBECDBFF3
:1051A000DF91CF911F910F91FF90EF90DF90CF9003
:1051B000BF909F908F907F906F905F904F900895D9
:1051C000B39407C0B1102DC001151105C9F20F5FCE
:1051D0001F4F01151105A9F2AE014B5F5F4FB401DE
:1051E000C60104DE6C014D805E806F8078844114BE
:1051F000510461047104A9F0F0E24F1651046104F6
:10520000710401F3D301C2018D97A109B10902977D
:10521000A105B10530F04BE244165104610471045C
:1052200079F6F7018081482F4B0D5527551F4631E0
:10523000510534F0853020F0CE0101960E941A1AF3
:1052400081E0411451046104710409F480E0B80E56
:10525000F70180818B0D8083BB2009F497CFBA942E
:10526000AE014B5F5F4FB401C801C0DD8C01CE01C0
:105270000596C7DEF1CF2F923F924F925F926F92C9
:105280007F928F929F92AF92BF92CF92DF92EF92D6
:10529000FF920F931F93CF93DF9300D0CDB7DEB76C
:1052A0004C013B015A012B83232E280181E080937E
:1052B000D2074091B3075091B4076091B507709140
:1052C000B607411551056105710571F014161506F3
:1052D0000CF080E0809379051092B3071092B40728
:1052E0001092B5071092B6071091790530909B0780
:1052F00010929B07311005C080914602882309F463
:1053000069C0C20165DD082F80E0C114D10411F02D
:10531000C6015EDD1A821982E114F104B1F4402F56
:1053200050E0282F30E0CA01820F931F46976CF49B
:1053300085E190E0841B950B821B930B97FD0196F2
:10534000959587958A8381E0898301E024E13AE19C
:10535000A201BE016F5F7F4FCE010296C2DEE11453
:10536000F10489F08A81882321F01A8289818F5F74
:10537000898300E027E13AE1A701BE016F5F7F4F1B
:10538000CE010296AEDEC114D10451F000E024E15A
:105390003AE1A601BE016F5F7F4FCE010296A1DE0A
:1053A00041E04127B30181E00E947DDEC40110DDB0
:1053B000412FB40194E1981B892F0E947DDE332098
:1053C00049F0111102C0AB80B22CA114B104C1F09C
:1053D000F50119950F900F900F90DF91CF911F91CC
:1053E0000F91FF90EF90DF90CF90BF90AF909F9084
:1053F0008F907F906F905F904F903F902F90089587
:105400004DDBE8CFCF92DF92EF92FF920F931F9385
:1054100089E4C82E80E1D82EF12CE12C0CE510E1B6
:1054200030E020E048E355E26BE470E182E590E192
:1054300022DF1F910F91FF90EF90DF90CF900895A2
:10544000AF92BF92CF92DF92EF92FF920F931F9392
:10545000CF93DF93CDB7DEB7ADB6BEB680E69FE0A3
:10546000B7DC90E001962DB73EB7281B390B0FB67D
:10547000F8943EBF0FBE2DBF8DB79EB701967C013D
:1054800060E67FE00E94E7FA8091A4070DE21FE04A
:10549000813031F008E11FE0823011F000E41FE0BC
:1054A00081E5C82E8FE0D82E21E335E248E355E2AE
:1054B00063E57FE08AE59FE0DEDE0FB6F894BEBECE
:1054C0000FBEADBEDF91CF911F910F91FF90EF9076
:1054D000DF90CF90BF90AF9008956FEF7FEF90C8AF
:1054E000E5EEF2E183AF64AFCA01F7CFF6CFCF9319
:1054F000DF93FC0125AD211104C021E025AF0E94FE
:10550000ECDCC091EB12D091EC12E0911A13F09107
:105510001B1382E01995E0911A13F0911B1381E09F
:10552000199530E020E044E1BE0189EE92E10E944D
:10553000E8DC2CE133E147E1BE0189EE92E10E9413
:10554000E8DCE0911A13F0911B1380E0DF91CF911A
:1055500019944F925F926F927F928F929F92AF9227
:10556000BF92CF92DF92EF92FF921F93CF93DF9380
:10557000CDB7DEB760970FB6F894DEBF0FBECDBFD4
:105580000E947ADB6B017C0180911C028F3F09F441
:1055900047C00E947ADB8090210590902205A09060
:1055A0002305B0902405681979098A099B0997FD9C
:1055B00037C08091BD129091BE128F5F8F70891796
:1055C00079F1E0911C0280E090E0A5E0B3E4E430E2
:1055D00050F424E0E29FF0011124EA54FD4F808151
:1055E0009181A281B3818D879E87AF87B88B198205
:1055F0001A821B821C821D821E821F8218861986B7
:105600001A861B861C86AE014F5F5F4FBE01635F2B
:105610007F4F8CE492E00E943BD38FEF80931C027B
:105620001EDB8091330582FF33C0809130058111EC
:1056300031C091E0909330058091D0078927809305
:105640009B071092D00783E08093460210923305A7
:105650000E947ADB6C507E4F8F4F9F4F60933405D2
:1056600070933505809336059093370568E873E1AC
:1056700082E090E00E94D2B316E0115059F00E94EF
:1056800076B362E070E080E090E00E94E0DAF5CF6F
:105690001092300580912C0590912D05A0912E053A
:1056A000B0912F05A7019601281B390B4A0B5B0B04
:1056B000DA01C901B7FF05C080917C05882309F490
:1056C000BCC1D701C6018C599F4FAF4FBF4F8093CC
:1056D0002C0590932D05A0932E05B0932F05609176
:1056E0003105062E000C770B77FF03C0719561958D
:1056F00071099091310580912B05981364C0633036
:1057000008F061C0109231058091310580932B051E
:10571000643008F068C080919B078111EAC08091D5
:10572000E3129091E4128158974441F480911D0254
:10573000882309F4F0C0815080931D020E94619972
:1057400080903B0890903C08A0903D08B0903E08A7
:1057500081110E946E99D501C4013AE0B695A795D2
:10576000979587953A95D1F7009741E0A407B10541
:1057700020F08FEF9FEFA0E0B0E096958795209105
:1057800046022111DAC030917C05311185C180912A
:10579000E3129091E4128158974409F464C1809116
:1057A000D207811160C18091270590912805A091B1
:1057B0002905B0912A05C81AD90AEA0AFB0AF7FC9A
:1057C00060C14FD95EC1633009F09ECF8091310531
:1057D00087FD07C081E0880F880F8093310564E062
:1057E00093CF8FEFF8CF8091C80721E030E040E001
:1057F00050E0882309F456C08090C4079090C507F4
:10580000A090C607B090C70781149104A104B10409
:10581000E9F170E090E080E00E94A3FB20E030E03E
:1058200040E85EE30E9404FC2B013C01C701B60185
:10583000681979098A099B090E94A3FB9B01AC01A5
:10584000C301B2010F94FB0020E030E04AE754E4CA
:105850000E9404FC4B015C0120E030E040EA52E48D
:105860000F94450224E630E040E050E087FF12C08C
:1058700020E030E040EF51E4C501B4010F9445024F
:105880002AE030E040E050E087FF04C021E030E053
:1058900040E050E0C092C407D092C507E092C6072E
:1058A000F092C7078091030184FF21C0A0913105C8
:1058B0000A2E000CBB0B0E94C1FF24E030E040E048
:1058C00050E00E949BFF8091B3079091B407A09194
:1058D000B507B091B607820F931FA41FB51F809321
:1058E000B3079093B407A093B507B093B60710928F
:1058F0003105D701C6018856954CAF4FBF4F8093F5
:10590000270590932805A0932905B0932A0581E0E7
:105910008093460204CF8CE080931D028091250580
:1059200090912605009729F0019790932605809382
:10593000250581E08093460201CF009741F0409118
:105940002505509126054817590708F020CF80916A
:105950007C05811111C0223038F0243008F43FC09A
:10596000243011F41092460285EE92E1C0DD81E010
:1059700080937D0580937C0583E032DB81E080931A
:105980000913E091E312F091E412199510927D054C
:1059900080917C05811127C010929B078091E312B2
:1059A0009091E4128158974409F0F9CE0E947ADB75
:1059B000DC01CB018C199D09AE09BF09809025053A
:1059C00090902605B12CA12C88169906AA06BB0634
:1059D00008F0DDCE9093260580932505D8CE81E092
:1059E00080934602C1CF89EE92E10E94B0DE91E041
:1059F000811101C090E090937C05882369F2809129
:105A0000E3129091E41281589744B9F40E947ADB32
:105A1000DC01CB018C199D09AE09BF09C090250599
:105A2000D0902605F12CE12CC816D906EA06FB0613
:105A300020F4909326058093250560960FB6F89480
:105A4000DEBF0FBECDBFDF91CF911F91FF90EF90D2
:105A5000DF90CF90BF90AF909F908F907F906F908E
:105A60005F904F90089548E9C40E4AE3D41EE11CAC
:105A7000F11CC0922705D0922805E0922905F092EA
:105A80002A0580917C058111D8CF80914602813012
:105A9000A1F610924602D1CF009709F46DCF4FCFF7
:105AA000CF92DF92EF92FF920F931F93CF93DF93EA
:105AB000CDB7DEB72C970FB6F894DEBF0FBECDBFC3
:105AC000F0902013E09021132091F70421111DC0C4
:105AD0004DE65DE06E2D8F2D0E94A3DF90E080E00B
