:100000000C9418180C9458180C9458180C945818F0
:100010000C9458180C9458180C9458180C945818A0
:100020000C9458180C9458180C9458180C94581890
:100030000C9458180C9458180C9458180C94581880
:100040000C9458180C948B8F0C9458180C945818C6
:100050000C9458180C94138D0C9458180C940EDFB3
:100060000C9458180C949F580C9495580C9458184C
:100070000C9458180C9458180C9458180C94581840
:100080000C940B4F0C9458180C9458180C94581846
:100090000C9458180C9458180C9458180C94581820
:1000A0000C9458180C9458180C94DD4E0C94581855
:1000B0000C9458180C9458180C9458180C94581800
:1000C0000C9458180C9458180C9458180C945818F0
:1000D0000C9458180C9458180C9458180C945818E0
:1000E0000C9458184E414E494E495459494E46CDEC
:1000F000CCCC3D0AD7233C17B7D13877CC2B3295DF
:1001000095E6241FB14F0A000020410000C84200BC
:10011000401C4620BCBE4CCA1B0E5AAEC59D744343
:100120004F4D4D554E49434154494F4E004452594D
:1001300052554E004552524F525300494E464F00C1
:100140004543484F00554E4C4F41442046494C4191
:100150004D454E54004C4F41442046494C414D457D
:100160004E540046494C414D454E54204348414E63
:1001700047450053544F505045442E20005072695B
:100180006E7465722073746F707065642064756539
:1001900020746F206572726F72732E20466978200A
:1001A000746865206572726F7220616E6420757369
:1001B00065204D39393920746F207265737461720E
:1001C000742E202854656D70657261747572652097
:1001D00069732072657365742E2053657420697489
:1001E0002061667465722072657374617274696EE1
:1001F00067290A004E6F20436865636B73756D2035
:1002000077697468206C696E65206E756D626572C1
:100210002C204C617374204C696E653A20004E6F3F
:1002200020436865636B73756D2077697468206C13
:10023000696E65206E756D6265722C204C617374F9
:10024000204C696E653A2000636865636B73756D59
:10025000206D69736D617463682C204C6173742028
:100260004C696E653A20004C696E65204E756D6272
:100270006572206973206E6F74204C617374204C1A
:10028000696E65204E756D6265722B312C204C6154
:100290007374204C696E653A20004D313130005343
:1002A000657269616C20737461747573206D697314
:1002B0006D617463680A005344207265616420654F
:1002C00072726F720A004B494C4C20627574746FE5
:1002D0006E2F70696E0A002121204B494C4C20631F
:1002E00061757365642062792000746F6F206D758D
:1002F000636820696E6163746976652074696D65F1
:10030000202D2063757272656E7420636F6D6D6150
:100310006E643A20002121204B494C4C20636175CA
:100320007365642062792000627573793A20706188
:100330007573656420666F7220696E7075740A004B
:10034000627573793A2070617573656420666F72A7
:1003500020757365720A00627573793A2070726F46
:1003600063657373696E670A004D65646961205245
:10037000656D6F766564004D6564696120496E73D3
:10038000657274656400506C6561736520526573B5
:100390006574005052494E5445522048414C5445D2
:1003A000440025533A202553004B494C4C45442EDC
:1003B00020005072696E7465722068616C746564A7
:1003C0002E206B696C6C28292063616C6C6564213C
:1003D0000A006563686F3A004572726F723A0048AE
:1003E0006F74656E6420746F6F20636F6C640A00B5
:1003F000507265737320627574746F6E20746F2011
:10040000726573756D650A00496E73657274206656
:10041000696C616D656E7420616E642070726573C5
:100420007320627574746F6E0A0050726573732066
:10043000627574746F6E20746F2068656174206ECD
:100440006F7A7A6C650A0020440020204D323030EB
:10045000205300202844697361626C6564293A0066
:1004600046696C616D656E742073657474696E673E
:10047000730020204D3230312058004D61782041EA
:100480006363656C65726174696F6E2028756E694F
:1004900074732F7332290020204D323033205800DE
:1004A0004D61782066656564726174657320287596
:1004B0006E6974732F73290020520020204D323052
:1004C00034205000416363656C65726174696F6EBE
:1004D0002028756E6974732F7332292028503C7060
:1004E00072696E742D616363656C3E20523C726567
:1004F00074726163742D616363656C3E20543C7457
:10050000726176656C2D616363656C3E29002058CD
:100510000020540020530020204D3230352042006E
:10052000416476616E6365642028423C6D696E5F4C
:100530007365676D656E745F74696D655F75733E35
:1005400020533C6D696E5F66656564726174653EDB
:1005500020543C6D696E5F74726176656C5F666590
:100560006564726174653E20583C6D61785F6A65B0
:10057000726B3E20593C6D61785F6A65726B3E20FC
:100580005A3C6D61785F6A65726B3E20453C6D61D7
:10059000785F6A65726B3E29002044002049002084
:1005A000204D333031205000486F74656E64205008
:1005B00049440020440020490020204D333034209D
:1005C0005000426564205049440020204D393037A6
:1005D0000053746570706572206D6F746F72206364
:1005E000757272656E747300203B002055002020E8
:1005F0004D363033204C0046696C616D656E742059
:100600006C6F61642F756E6C6F6164003B2000201D
:10061000496E76616C696420657874727564657280
:100620002000536C6565702E2E2E00436C69636B41
:1006300020746F20526573756D652E2E2E004E6FDF
:10064000204D6F76652E00456E642066696C6520CE
:100650006C6973740A00426567696E2066696C652F
:10066000206C6973740A004E6F206D656469610ABD
:1006700000286E6F2066696C65290043757272658B
:100680006E742066696C653A20004E6F7420534486
:10069000207072696E74696E670A0053442070722C
:1006A000696E74696E67206279746520002E0A0095
:1006B00044656C6574696F6E206661696C65642C55
:1006C0002046696C653A200046696C652064656C5B
:1006D000657465643A002569730025696D20256994
:1006E00073002569682025696D20256973002569D7
:1006F00064202569682025696D20256973002569B6
:100700007920256964202569682025696D2025697F
:1007100073005072696E742074696D653A20006FC1
:100720006B006F66660040013B0134012D011F0123
:1007300044454255473A004D313132205368757473
:10074000646F776E004D31313320530054657374FC
:10075000696E67204D616368696E65204E616D65E5
:10076000204F46462E00434F4E4649475F4558505E
:100770004F5254004D4541545041434B00434F4F5D
:100780004C45525F54454D504552415455524500D9
:100790004348414D4245525F54454D5045524154A6
:1007A00055524500424142595354455050494E47D5
:1007B0000041524353004D4F54494F4E5F4D4F44FB
:1007C000455300544845524D414C5F50524F54459B
:1007D0004354494F4E00455854454E4445445F4D9F
:1007E000323000435553544F4D5F4649524D5741A7
:1007F00052455F55504C4F4144004C464E5F575256
:10080000495445004C4F4E475F46494C454E414D7B
:1008100045004155544F5245504F52545F53445F29
:100820005354415455530053445F57524954450063
:10083000524550454154004D554C54495F564F4C1C
:10084000554D45005344434152440050524F4D5082
:10085000545F535550504F525400484F53545F41CA
:100860004354494F4E5F434F4D4D414E4453004515
:100870004D455247454E43595F50415253455200F2
:10088000434153455F4C494748545F4252494748AA
:10089000544E45535300544F47474C455F4C4947CE
:1008A00048545300534F4654574152455F504F5799
:1008B0004552004255494C445F50455243454E54C1
:1008C000004C4556454C494E475F44415441005AFF
:1008D0005F50524F42450052554E4F5554004155BE
:1008E000544F4C4556454C005052494E545F4A4F68
:1008F000420050524F4752455353004155544F52B6
:1009000045504F52545F54454D50004155544F523D
:1009100045504F52545F504F5300564F4C554D4524
:100920005452494300454550524F4D0042494E41B3
:1009300052595F46494C455F5452414E53464552C9
:100940000053455249414C5F584F4E5F584F464601
:10095000004649524D574152455F4E414D453A4D33
:1009600061726C696E20322E312E3220284A756EEB
:1009700020203220323032332031383A30313A328E
:10098000342920534F555243455F434F44455F55EB
:10099000524C3A6769746875622E636F6D2F4D61B2
:1009A000726C696E4669726D776172652F4D617206
:1009B0006C696E2050524F544F434F4C5F56455216
:1009C00053494F4E3A312E30204D414348494E4510
:1009D0005F545950453A54657374696E67204D6190
:1009E0006368696E65204E616D65204558545255A7
:1009F0004445525F434F554E543A31205555494472
:100A00003A63656465326132662D343161322D346A
:100A10003734382D396231322D63353563363266DD
:100A20003336376666002F2F004D31343520533C66
:100A3000696E6465783E206F7574206F6620726100
:100A40006E67652028302D31290A0046523A002071
:100A5000466C6F773A2000206F7574206F662072A5
:100A6000616E67650A00536572766F20003A200058
:100A700020536572766F20004261627973746570ED
:100A8000205A0064697300656E0043290A006162A0
:100A90006C656420286D696E2074656D702000435C
:100AA0006F6C64206578747275646573206172651B
:100AB00020004F666673657473204170706C6965C1
:100AC00064004572723A20546F6F20666172210093
:100AD000546F6F206661722066726F6D207265665A
:100AE0006572656E636520706F696E740A004545B6
:100AF00050524F4D204F4B0A002E0A002028302D17
:100B0000313029002076616C7565206F7574206F17
:100B1000662072616E676500416476616E63652070
:100B20004B3D004D383400446F6E65207072696E25
:100B300074696E672066696C650A004D3737004D31
:100B4000333100496E76616C696420657874727522
:100B50006465720A0020204D323036205800486FFC
:100B60006D65206F6666736574004361703A00437B
:100B70006F6F6C696E672E2E2E0045312025530055
:100B800020573A0042656420436F6F6C696E672E90
:100B90002E2E004265642048656174696E672E2EB2
:100BA0002E0023646566696E652044454641554CB8
:100BB000545F0000626564004B6420004B692000B4
:100BC0004B7020002066696E69736865642120504F
:100BD000757420746865206C617374204B702C20D0
:100BE0004B6920616E64204B6420636F6E73746187
:100BF0006E74732066726F6D2062656C6F7720690A
:100C00006E746F20436F6E66696775726174696F89
:100C10006E2E680A00504944204175746F74756ED9
:100C20006500206661696C6564212074696D656F7B
:100C300075740A00504944204175746F74756E656F
:100C400000206661696C6564212054656D70657271
:100C5000617475726520746F6F20686967680A0037
:100C6000504944204175746F74756E650050494455
:100C7000204379636C65730025532025692F25690E
:100C800000204B643A2000204B693A2000204B7032
:100C90003A200020436C61737369632050494420FB
:100CA0000A00204E6F206F76657273686F6F740A4A
:100CB000002054753A2000204B753A2000206D61C9
:100CC000783A2000206D696E3A200020643A2000B6
:100CD00020626961733A200048656174696E672E0D
:100CE0002E2E002073746172740A00504944204112
:100CF00075746F74756E6500206661696C6564213A
:100D00002054656D706572617475726520746F6FC3
:100D100020686967680A00504944204175746F74FF
:100D2000756E6500504944204175746F74756E6529
:100D300000206661696C65642120426164206865F9
:100D4000617465722069640A0050494420417574D9
:100D50006F74756E65004572723A2075746638203E
:100D6000666F6E74206E6F7420696E697469616C51
:100D7000697A65642E004572723A2075746638206F
:100D8000666F6E74206E6F7420696E697469616C31
:100D9000697A65642E004572723A2075746638204F
:100DA000666F6E74206E6F7420696E697469616C11
:100DB000697A65642E0020003A003A002568753A89
:100DC00025303268750025303268753A2530326832
:100DD0007500253032687527253032687500256822
:100DE00075642025303268753A25303268750042C6
:100DF000656400456E636C6F737572650045002015
:100E0000002500202020202020200020202020005D
:100E1000657272001FE0201020102010102010209A
:100E20002010201030300840048003001FE03FF005
:100E30003FF03FF01FE01FE03FF03FF03FF00FC0FA
:100E4000078003003FFFF038007030FC3020FC10BA
:100E50002078102030102C00D02E31D02F7BD02FB6
:100E60007BD02E31D02C00D020301020781020FCE8
:100E70001030FC303800703FFFF03FFFF03800705A
:100E80003186302387102787902F87D02F03D020DB
:100E900030102078102078102030102F03D02F87AA
:100EA000D02787902387103186303800703FFFF0BD
:100EB0001FFFF81FFFF8041040020820020820045A
:100EC00010400820801041001041000820800410CC
:100ED000400000001FFFF81FFFF85072696E742079
:100EE00041626F72746564004D323520500A4D3294
:100EF000340050617573696E672E2E2E004D3234AA
:100F000000454550524F4D2056657273696F6E20F3
:100F10004572726F7200454550524F4D20496E64C4
:100F20006578204572726F7200454550524F4D20D2
:100F3000435243204572726F72003F0049676E6FE3
:100F4000726500526573657400496E697469616CFD
:100F5000697A6520454550524F4D004C6F616420C1
:100F60006D6D00556E6C6F6164206D6D0046696C2F
:100F70002E204469612E004520696E206D6D5E3320
:100F800000416476616E6365204B00200820466155
:100F90006374002008204D6178002008204D696EA0
:100FA000004F6666004F6E004175746F74656D701A
:100FB000004D696E2054726176656C2053706565D2
:100FC00064004D696E2056656C6F63697479004DDD
:100FD00061782040205370656564004D617820453C
:100FE00020416363656C004D61782040204163635C
:100FF000656C0054726176656C20416363656C00BA
:101000005265747261637420416363656C0041636F
:1010100063656C004D61782040204A65726B00402A
:101020002073746570732F6D6D00416476616E631B
:1010300065642053657474696E6773003F00436193
:101040006E63656C00496E6974004D343238004936
:101050006E697469616C697A6520454550524F4DDF
:101060000046696C616D656E740054656D706572E3
:1010700061747572650053746570732F6D6D004AED
:1010800065726B00416363656C65726174696F6E54
:10109000004D617820537065656420286D6D2F7355
:1010A000290053657420486F6D65204F666673652F
:1010B000747300436F6E66696775726174696F6EF1
:1010C00000426564004E6F7A7A6C650046616E205E
:1010D000537065656400436F6E666967757261740D
:1010E000696F6E00526573746F7265204465666146
:1010F000756C7473004C6F61642053657474696E11
:1011000067730053746F72652053657474696E67FA
:10111000730050726568656174202420436F6E66A9
:1011200000416476616E6365642053657474696E12
:101130006773004D61696E004D373032205425646D
:10114000004D36303020423020542564004D373079
:1011500032203B2564004D37303120542564004354
:1011600068616E67652046696C616D656E740050DC
:1011700072656865617420437573746F6D00507299
:1011800065686561742024004261636B004D3630F0
:1011900030423000436F6E74696E75650050757231
:1011A0006765206D6F726500524553554D45204F60
:1011B0005054494F4E533A005052494E54205041DA
:1011C00055534544002F00200020204E6F7A7A6C42
:1011D000653A2000000C0F00FE07022503BB017FCB
:1011E000FE08FE08FE05080806000040F0C88888D2
:1011F000987810050808060000C0F8888888888854
:10120000F80505050600012030F83020050808061D
:1012100000002070F820202020E00509090600FFCA
:101220002070A8A8B888887020070505070001D895
:101230006C366CD80509090600FFF8A888888888EC
:1012400088A8F8050A0A0600FE205050505088A8C9
:10125000A8887003030306000340A040FFFFFFFFC0
:10126000FFFFFFFFFFFFFFFFFFFFFFFFFFFFFFFF8E
:10127000FFFF0000000605FF01070706020080804F
:101280008080800080030303060105A0A0A005065E
:101290000606000050F85050F8500509090600FFF6
:1012A0002070A8A07028A87020050707060000C8B5
:1012B000C8102040989805070706000040A0A040ED
:1012C000A8906801030306020580808003090906CF
:1012D00001FF204040808080404020030909060132
:1012E000FF80404020202040408005070706000086
:1012F00020A8702070A8200505050600012020F810
:1013000020200203030601FFC04080050101060002
:1013100003F8020202060100C0C00507070600002C
:1013200008101020404080050707060000708898CC
:10133000A8C8887003070706010040C0404040402D
:10134000E0050707060000708808102040F8050730
:1013500007060000F8081030088870050707060027
:101360000010305090F81010050707060000F880B4
:10137000F008088870050707060000304080F088F4
:101380008870050707060000F808101020202005C7
:1013900007070600007088887088887005070706B0
:1013A000000070888878081060020505060100C0FA
:1013B000C000C0C00206060601FFC0C000C04080D9
:1013C00003050506010120408040200503030600B7
:1013D00002F800F803050506010180402040800561
:1013E0000707060000708810202000200507070668
:1013F00000007088B8A8B880700507070600007064
:101400008888F8888888050707060000F048487033
:101410004848F005070706000070888080808870C3
:10142000050707060000F04848484848F005070748
:10143000060000F88080F08080F8050707060000AD
:10144000F88080F0808080050707060000708880A3
:1014500080988870050707060000888888F88888C3
:1014600088030707060100E04040404040E00507D0
:1014700007060000381010101090600507070600DE
:10148000008890A0C0A09088050707060000808013
:1014900080808080F805070706000088D8A8888823
:1014A00088880507070600008888C8A898888805E6
:1014B0000707060000708888888888700507070677
:1014C0000000F08888F08080800507070600007023
:1014D000888888A89068050707060000F08888F0CB
:1014E000A090880507070600007088807008887043
:1014F000050707060000F820202020202005070708
:10150000060000888888888888700507070600001C
:10151000888888885050200507070600008888883A
:1015200088A8A85005070706000088885020508822
:10153000880507070600008888502020202005071E
:1015400007060000F80810204080F803090906018A
:10155000FFE080808080808080E005070706000033
:10156000804040201010080309090601FFE02020F8
:101570002020202020E005030306000520508805D8
:1015800001010600FEF80303030601058040200563
:101590000505060000700878887805070706000032
:1015A0008080F0888888F00505050600007080803E
:1015B000887005070706000008087888888878057D
:1015C00005050600007088F080700507070600001A
:1015D000304840E04040400507070600FE7088881C
:1015E000887808700507070600008080F0888888E2
:1015F000880307070601004000C0404040E004099E
:10160000090601FE10003010101010906005070749
:1016100006000080808890E090880307070601009C
:10162000C04040404040E0050505060000D0A8A8A5
:10163000A8A8050505060000B0C888888805050526
:1016400006000070888888700507070600FEF0888D
:101650008888F080800507070600FE7888888878EB
:101660000808050505060000B0C88080800505054E
:1016700006000078807008F00507070600002020AB
:10168000F82020201805050506000088888898683D
:101690000505050600008888885020050505060018
:1016A000008888A8A850050505060000885020502D
:1016B000880507070600FE888888502040800505B9
:1016C00005060000F8102040F80309090601FF2074
:1016D00040404080404040200109090602FF8080D0
:1016E000808080808080800309090601FF8040405F
:1016F00040204040408005030306000248A890FFB8
:10170000504554470041425300504C4100506172D3
:101710006B696E672E2E2E0000005761697420667B
:101720006F720066696C616D656E74206368616ECE
:10173000676500746F207374617274005761697417
:1017400020666F720066696C616D656E7420756EDF
:101750006C6F616400004E6F7A7A6C652068656119
:1017600074696E6700506C65617365207761697498
:101770002E2E2E0000507265737320627574746F84
:101780006E00746F2068656174206E6F7A7A6C6584
:101790000000496E736572742066696C616D656ED8
:1017A0007400616E64207072657373206275747466
:1017B0006F6E00746F20636F6E74696E756500578D
:1017C00061697420666F720066696C616D656E7424
:1017D000206C6F61640000507265737320427574F1
:1017E000746F6E00746F20726573756D6520707212
:1017F000696E7400005761697420666F72207072A0
:10180000696E7400746F20726573756D652E2E2E6F
:101810000000436C69636B20746F2066696E6973A6
:10182000680066696C616D656E74207075726765BD
:1018300000003F004261636B0053746F70003F0013
:101840004E4F00594553004E6F204D65646961004D
:101850005072696E742066726F6D204D65646961A7
:10186000004368616E6765204D65646961004D32B3
:1018700031004368616E67652046696C616D656E15
:101880007400436F6E66696775726174696F6E008C
:1018900054656D7065726174757265004D6F746921
:1018A0006F6E00526573756D65205072696E7400BD
:1018B00054756E650053746F70205072696E7400B9
:1018C0005061757365205072696E7400496E666F61
:1018D0002053637265656E003F005374617274201B
:1018E0005072696E740043616E63656C005072697A
:1018F0006E740043616E6E6F7420656E7465722045
:101900007375626469723A200002202E2E004D61C8
:10191000696E002100486F74656E6420746F6F20DB
:10192000636F6C64004261636B0050726F63656546
:1019300064004D6F76652045787472756465720039
:101940004D6F74696F6E0044697361626C652053FA
:1019500074657070657273004D3834004732385AC0
:10196000004732385900486F6D65204000473238D3
:1019700058004175746F20486F6D6500473238001C
:101980004D61696E00507265686561742024204263
:1019900065640050726568656174202420456E643A
:1019A0000054656D70657261747572650009170584
:1019B000170017436F6F6C646F776E005072656825
:1019C00065617420240046616E2053706565642053
:1019D0007E00426564004E6F7A7A6C65004D6169E5
:1019E0006E003A00546F74616C00426162797374E6
:1019F0006570205A004261627973746570204000FE
:101A0000416476616E6365204B00466C6F770046DB
:101A1000616E205370656564207E00426564004EEF
:101A20006F7A7A6C65005370656564004D61696E0C
:101A3000006F70656E005452494747455245440057
:101A40003A20007A5F6D617800795F6D696E007889
:101A50005F6D696E005265706F7274696E672065A4
:101A60006E6473746F70207374617475730A0020F0
:101A7000746F6F206C6F6E67206578747275736910
:101A80006F6E2070726576656E7465640A002063FF
:101A90006F6C6420657874727573696F6E207072F4
:101AA0006576656E7465640A00000080C000000001
:101AB000C0000048435761726E696E673A20486FF4
:101AC0006D696E672042756D702044697669736F29
:101AD00072203C20310A00040406000051430080BB
:101AE0008043000057430000404000004040000099
:101AF000004053657474696E67732053746F726528
:101B00006400290A002062797465733B2063726364
:101B1000200053657474696E67732053746F726527
:101B20006420280048617264636F646564204465C2
:101B30006661756C742053657474696E6773204CAC
:101B40006F616465640044696769706F74205772DF
:101B5000697474656E0A0057726974696E6720440F
:101B6000696769706F740A0020286D6D290020462E
:101B70000020420020480020204D31343520530001
:101B80004D6174657269616C20686561747570205F
:101B9000706172616D65746572730020204D39301B
:101BA00030204B004C696E65617220416476616E35
:101BB00063650020204D3134392043203B20556E91
:101BC00069747320696E2043656C736975730A00CC
:101BD00054656D706572617475726520556E6974B7
:101BE00073002020473231203B004C696E656172E2
:101BF00020556E69747300454550524F4D20646105
:101C0000746173697A65206572726F722E0A002999
:101C10000A002062797465733B20637263200020A0
:101C200073746F7265642073657474696E67732072
:101C30007265747269657665642028002028636186
:101C40006C63756C6174656429210A0020213D2054
:101C500000454550524F4D20435243206D69736DEE
:101C600061746368202D202873746F726564292065
:101C7000002053697A653A2000496E6465783A20FD
:101C80000044494749504F5453204C6F6164656488
:101C90000A0044494749504F5453204C6F616469CE
:101CA0006E670A0000007A4300007A430000A041FA
:101CB0000000F0419A99B1429A99B1420000C8439C
:101CC00000C0EB43B0040000B00400000A000000B4
:101CD000D0070000204D61726C696E3D563837297F
:101CE0000A00454550524F4D2076657273696F6EFC
:101CF000206D69736D617463682028454550524FAB
:101D00004D3D0024F404D9201BC40C5C0E9804C47F
:101D1000095F0265077101F405F900FB04B300488F
:101D2000048700C10369005803550003034500BE42
:101D3000023A008402310053022A002902250004DD
:101D4000022000E4011C00C8011900AF011700982F
:101D50000114008401130071011000610110005191
:101D6000010E0043010D0036010B002B010B00207A
:101D7000010B00150109000C01090003010800FB1B
:101D8000000800F3000800EB000700E4000600DE96
:101D9000000600D8000600D2000600CC000500C7EF
:101DA000000500C2000500BD000400B9000400B534
:101DB000000400B1000400AD000400A9000400A567
:101DC000000300A20003009F0004009B0003009892
:101DD0000003009500020093000300900003008DB3
:101DE0000002008B000300880002008600020084CD
:101DF000000300810002007F0002007D0002007BE2
:101E000000020079000200770001007600020074F1
:101E100000020072000100710002006F0002006DFC
:101E20000001006C0002006A000100690002006706
:101E3000000100660001006500010064000200620C
:101E400000010061000100600001005F0002005D10
:101E50000001005C0001005B0001005A0001005914
:101E60000001005800010057000100560001005514
:101E70000001005400010053000000530001005213
:101E800000010051000100500001004F0001004E10
:101E90000000004E0001004D0001004C0001004B0D
:101EA0000000004B0001004A000100490001004809
:101EB0000000004800010047000100460000004605
:101EC00000010045000000450001004400010043FE
:101ED00000000043000100420000004200010041F8
:101EE00000000041000100400001003F0000003FF1
:101EF0000001003E0000003E0001003D0000003DEA
:101F00000001003C0000003C0000003C0001003BE0
:101F10000000003B0001003A0000003A00010039D7
:101F200000000039000100380000003800000038CF
:101F300000010037000000370001003600000036C5
:101F400000000036000100350000003500000035BB
:101F500000010034000000340000003400010033B0
:101F600000000033000000330001003200000032A6
:101F7000000000320001003100000031000000319B
:101F80000001003000000030000000300001002F90
:101F90000000002F0000002F0000002F0001002E85
:101FA0000000002E0000002E0001002D0000002D7A
:101FB0000000002D0000002D0001002C0000002C6E
:101FC0000000002C0000002C0001002B0000002B62
:101FD0000000002B0000002B0001002A0000002A56
:101FE0000000002A0000002A00010029000000294A
:101FF000000000290000002900000029000100283D
:102000000000002800000028000000280000002830
:102010000001002700000027000000270000002723
:102020000000002700010026000000260000002616
:102030000000002600000026000100250000002509
:1020400000000025000000250000002500000025FC
:1020500000010024000000240000002400000024EF
:1020600000000024000100230000002300000023E2
:1020700000000023000000230000002300000023D4
:1020800000010022000000220000002200000022C7
:1020900000000022000000220001002100000021B9
:1020A00000000021000000210000002100000021AC
:1020B000000000210001002000000020000000209E
:1020C0000000002000000020000000200000002090
:1020D000000000200001001F0000001F0000001F82
:1020E0000000001F0000001F0000001F0000001F74
:1020F0000001001E0000001E0000001E0000001E67
:1021000000000024F4D43050C38E20C2A2401782B5
:102110008B7011127A910D816CD90AA861E108C700
:10212000586607615143061E4B5D05C145A7041A59
:10213000411104093D9803713931034036DB0265D2
:10214000339102D4305402802E1D02632CEE0175AF
:102150002AC501B028A001102781018F2564012B19
:10216000244B01E0223401AC211F018D200D0180A0
:102170001FFC00841EED00971DDF00B81CD200E696
:102180001BC600201BBC00641AB200B219A8000ACA
:1021900019A0006A189900D117910040178B00B55B
:1021A00016840031167E00B31579003A157300C706
:1021B000146F0058146A00EE13660088136300253C
:1021C000135E00C7125B006C12570015125400C159
:1021D00011510070114F0021114B00D61049008D94
:1021E0001047004610440002104200C00F4000801B
:1021F0000F3E00420F3C00060F3B00CB0E38009311
:102200000E37005C0E3500270E3400F30D3200C18E
:102210000D3100900D3000600D2E00320D2D0005A7
:102220000D2C00D90C2B00AE0C2900850C29005C6C
:102230000C2700350C27000E0C2600E80B2400C4E8
:102240000B2400A00B23007D0B23005A0B21003927
:102250000B2100180B2000F80A1F00D90A1E00BB32
:102260000A1E009D0A1D00800A1D00630A1C00470B
:102270000A1B002C0A1B00110A1A00F7091A00DDBC
:10228000091900C4091900AB091900920917007B4C
:10229000091800630917004C0916003609160020BA
:1022A0000916000A091500F5081500E0081400CC0D
:1022B000081400B8081400A4081400900813007D46
:1022C0000812006B08130058081200460812003468
:1022D000081100230811001208110001081100F074
:1022E000071000E0071000D0071000C0071000B072
:1022F000070F00A107100091070E0083070F00745D
:10230000070F0065070E0057070E0049070E003B38
:10231000070D002E070E0020070D0013070D000605
:10232000070D00F9060C00ED060D00E0060C00D4C8
:10233000060C00C8060C00BC060C00B0060C00A47D
:10234000060B0099060C008D060B0082060B007729
:10235000060B006C060B0061060A0057060B004CCA
:10236000060A0042060A0038060A002E060A002461
:10237000060A001A060A001006090007060A00FDF0
:10238000050900F4050900EB050900E2050900D97B
:10239000050900D0050900C7050900BE050900B5FB
:1023A000050800AD050800A50509009C0508009476
:1023B0000508008C050800840508007C05080074E9
:1023C0000508006C050700650508005D0507005657
:1023D0000508004E050700470507004005080038BE
:1023E000050700310507002A050700230507001C23
:1023F000050600160507000F050700080506000280
:10240000050700FB040600F5040700EE040600E8DB
:10241000040600E2040700DB040600D5040600CF32
:10242000040600C9040600C3040600BD040600B784
:10243000040600B1040500AC040600A6040600A0D2
:102440000405009B04060095040500900406008A1C
:1024500004050085040500800406007A0405007563
:10246000040500700405006B0405006604050061A6
:102470000405005C04050057040500520405004DE6
:1024800004050048040500430405003E0404003A26
:1024900004050035040500300404002C0405002761
:1024A000040400230405001E0404001A040400169A
:1024B000040500110404000D0404000904050004CF
:1024C00004040000040400FC030400F8030400F406
:1024D000030400F0030400EC030400E8030400E438
:1024E000030400E0030400DC030400D8030400D468
:1024F000030400D0030400CC030400C8030300C598
:1025000003030020436F756E7420583A004D6963D1
:10251000726F737465707320756E617661696C613A
:10252000626C650A002045303A00205A3A00205972
:102530003A0020583A004D53317C327C33205069A8
:102540006E730000426564004531004500626564B9
:10255000002C2073797374656D2073746F707065CF
:102560006421204865617465725F49443A200045E2
:1025700072723A204D415854454D50004D415854C7
:10258000454D5020747269676765726564004865DF
:102590006174696E67204661696C656400486561B5
:1025A00074696E67206661696C6564004572723A91
:1025B000204D494E54454D50004D494E54454D50C7
:1025C0002074726967676572656400202F0020427D
:1025D000403A0020403A0020573A000009121B24DC
:1025E0002D363F48415A536C657E7719100B023DDA
:1025F000342F265158434A757C676E323B2029168A
:102600001F040D7A7368615E574C452B2239300FD9
:10261000061D14636A7178474E555C646D767F4081
:1026200049525B2C253E3708011A137D746F665999
:10263000504B42353C272E1118030A565F444D7209
:102640007B60691E170C053A3328214F465D546B99
:10265000627970070E151C232A31384148535A6598
:102660006C777E09001B122D243F3658514A437C5B
:10267000756E671019020B343D262F737A61685707
:102680005E454C3B3229201F160D046A6378714E5B
:10269000475C55222B3039060F141D252C373E017F
:1026A00008131A6D647F7649405B523C352E27181B
:1026B000110A03747D666F5059424B171E050C3387
:1026C0003A21285F564D447B7269600E071C152A1B
:1026D000233831464F545D626B70790000211042FF
:1026E0002063308440A550C660E770088129914A74
:1026F000A16BB18CC1ADD1CEE1EFF13112100273FB
:10270000325222B5529442F772D662399318837BC3
:10271000B35AA3BDD39CC3FFF3DEE362244334204A
:10272000040114E664C774A44485546AA54BB52813
:10273000850995EEE5CFF5ACC58DD55336722611DA
:10274000163006D776F6669556B4465BB77AA71963
:10275000973887DFF7FEE79DD7BCC7C448E55886A2
:1027600068A7784008611802282338CCC9EDD98EB3
:10277000E9AFF9488969990AA92BB9F55AD44AB73A
:102780007A966A711A500A333A122AFDDBDCCBBF03
:10279000FB9EEB799B588B3BBB1AABA66C877CE40A
:1027A0004CC55C222C033C600C411CAEED8FFDEC53
:1027B000CDCDDD2AAD0BBD688D499D977EB66ED51A
:1027C0005EF44E133E322E511E700E9FFFBEEFDDA3
:1027D000DFFCCF1BBF3AAF599F788F8891A981CA80
:1027E000B1EBA10CD12DC14EF16FE18010A100C25F
:1027F00030E3200450254046706760B9839893FB0E
:10280000A3DAB33DC31CD37FE35EF3B1029012F3AE
:1028100022D2323542145277625672EAB5CBA5A85D
:102820009589856EF54FE52CD50DC5E234C324A0FE
:102830001481046674476424540544DBA7FAB799ED
:1028400087B8975FE77EF71DC73CD7D326F236914E
:1028500006B01657667676154634564CD96DC90EB5
:10286000F92FE9C899E9898AB9ABA944586548069E
:10287000782768C018E1088238A3287DCB5CDB3F4D
:10288000EB1EFBF98BD89BBBAB9ABB754A545A37EE
:102890006A167AF10AD01AB32A923A2EFD0FED6C1D
:1028A000DD4DCDAABD8BADE89DC98D267C076C643E
:1028B0005C454CA23C832CE01CC10C1FEF3EFF5D2D
:1028C000CF7CDF9BAFBABFD98FF89F176E367E558E
:1028D0004E745E932EB23ED10EF01E7C3C3E5E2BBB
:1028E0003D3F2F5B5D3B2C2A225C004D6564696196
:1028F00020496E6974204661696C0053442063610D
:102900007264206F6B0A006F70656E526F6F742077
:102910006661696C65640A00766F6C756D652E6919
:102920006E6974206661696C65640A004E6F20539D
:102930004420636172640A0053442063617264201E
:1029400072656C65617365640A000A4D3234004D2E
:102950003233202573002E0A006F70656E20666189
:10296000696C65642C2046696C653A200046696C88
:10297000652073656C65637465640A002053697A29
:10298000653A200046696C65206F70656E65643A33
:102990002000454E4420535542524F5554494E4510
:1029A0000A002220706F73002220706172656E74BD
:1029B0003A2200535542524F5554494E4520434107
:1029C0004C4C207461726765743A220053756263DF
:1029D000616C6C204F766572666C6F77004578632A
:1029E0006565646564206D617820535542524F558A
:1029F00054494E452064657074683A005772697492
:102A0000696E6720746F2066696C653A2000667293
:102A100065736800646F696E67002066696C653A6B
:102A200020004E6F7720002F6175746F25632E672D
:102A3000006D61726C696E66772E6F726700322E60
:102A4000312E32001FFFFFFFFFFFFF60000000007C
:102A500001FF400000000000FF8000000000007F38
:102A600083CF00000C303F87FF80000C301F867939
:102A700080000C000F8C30C7838C30E78C30CFC7C0
:102A8000CC31F38C30DCECEC33B98C30D86C6C335B
:102A9000198C30D06C0C33198C30D86C0C33198CE9
:102AA00030DC6C0E3B198C30CF7C079F198C30C703
:102AB0007C038F194000000000000260000000004D
:102AC00000061FFFFFFFFFFFF870012C0190012798
:102AD00001B0012201C0011D01F001180110021313
:102AE0000130020E016002090190020401C002FFE0
:102AF000000003FA004003F5008003F000D003EB70
:102B0000002004E6007004E100E004DC004005D78A
:102B100000C005D2004006CD00D006C8008007C323
:102B2000003008BE00F008B900C009B400B00AAF18
:102B300000B00BAA00D00CA500000EA000500F9B07
:102B400000C01096005012910000148C00C0158730
:102B500000B0178200B0197D00D01B7800001E73F2
:102B60000040206E0090226900F024640040275F3E
:102B70000090295A00E02B5500102E500020304BB9
:102B80000010324600E033410090353C00103737EA
:102B90000070383200A0392D00B03A2800A03B2345
:102BA00000603C1E00103D1900903D1400103E0FC7
:102BB00000703E0A00C03E0500003F0000403FFBA1
:102BC000FF803FF6FFC03FF1FF2020506C616E6E2A
:102BD000657242756666657242797465733A200063
:102BE0002046726565204D656D6F72793A20002030
:102BF000436F6D70696C65643A204A756E202032AF
:102C000020323032330A00204C61737420557064D6
:102C1000617465643A20323032322D31322D3137D1
:102C2000207C20417574686F723A20284D325F53C2
:102C30005F5A6D61785F7634207C204D61726C69DB
:102C40006E2D76322E312E32202D20476172726524
:102C500074742030362F30332F32303233290A004B
:102C60004D61726C696E20322E312E320A00205373
:102C70006F6674776172652052657365740A00200F
:102C80005761746368646F672052657365740A00E6
:102C90002042726F776E206F757420526573657471
:102CA0000A002045787465726E616C205265736508
:102CB000740A00506F77657255700A007374617200
:102CC000740A004732385859004D31303031006FA6
:102CD0006B006572726F722077726974696E67201B
:102CE000746F2066696C650A00446F6E65207361BD
:102CF00076696E672066696C652E0A004D32390070
:102D0000456E6473746F707300255320256320250E
:102D10006320256320256300205A3A0020593A0099
:102D200020583A00656E6473746F7073206869741C
:102D30003A200000000A0B02090C0D0E08070304DC
:102D40000100000000000000000000000000000082
:102D50000000000000000000000000000000001261
:102D60001110000000000000000000000000000042
:102D70000000000000000000000000000000000053
:102D8000000000000000000000752A0000E61B00A3
:102D9000008D10000020090000CF04000078020020
:102DA0000040010000A10000004D6F766520246DF9
:102DB0006D00302E303235004D6F766520302E316B
:102DC0006D6D004D6F766520316D6D004D6F7665D0
:102DD0002031306D6D004D6F76652041786973004C
:102DE0004D6F7665202A004D6F76652040002000EB
:102DF0002000200020002000486F6D696E6720468B
:102E000061696C656400FFFF0143616E6E6F742041
:102E10006F70656E207375626469722000496E730D
:102E20006572742066696C616D656E7420616E6494
:102E300020707265737320627574746F6E0A00225D
:102E40000A00556E6B6E6F776E20636F6D6D616EED
:102E5000643A202200204500205A002059002020FA
:102E60004D3932205800537465707320706572209C
:102E7000756E69740000002200250028002B002ECA
:102E8000003100340002010000050108010B0100BF
:102E9000002100240027002A002D0030003300010B
:102EA000010000040107010A0105050505070508E1
:102EB000080808020202020A0A08080404040401BD
:102EC00001010101010101030303030303030304DF
:102ED0000707070C0C0C0C0C0C0C0C02020202066F
:102EE000060606060606060B0B0B0B0B0B0B0B0759
:102EF000070A0A0A0A0A0A05050504040408080163
:102F000002102020080810204010204080020102FA
:102F100001080402010102040810204080804020C2
:102F200010080402018004020180402010080402FD
:102F3000010804020101020408102040800102047B
:102F400008102040801008040880102040044080B1
:102F500010204004804572726F7220777269746924
:102F60006E6720746F20454550524F4D210A002056
:102F7000746F6F206C6F6E672065787472757369FB
:102F80006F6E2070726576656E7465640A002063EA
:102F90006F6C6420657874727573696F6E207072DF
:102FA0006576656E7465640A00544845524D414C1F
:102FB0002052554E4157415900546865726D616CFD
:102FC0002052756E6177617900486F6D65202573B9
:102FD000257325732046697273740020453A0020DA
:102FE0005A3A0020593A00583A006F6B0A0052656D
:102FF00073656E643A200054657374696E67204D82
:10300000616368696E65204E616D6520526561641B
:10301000792E005072696E74696E672E2E2E0050E4
:1030200072696E74205061757365640053F0A4F981
:1030300011241FBECFEFD1E2DEBFCDBF00E00CBF39
:1030400084B78093F11514BE0FB6F894A8958091BB
:103050006000886180936000109260000FBE13E0F2
:10306000A0E0B2E0E8E0FAE002E00BBF02C00790A7
:103070000D92A43BB107D9F725E1A4EBB3E001C061
:103080001D92A13FB207E1F718E1C7E1D8E100E0E6
:1030900006C021970109802FFE010F949402C631CA
:1030A000D10780E00807A9F70E9468F10D94F304A6
:1030B0000C94000008950895CF93DF93EC01CB01A9
:1030C000BA010E9423FE29EC38EC48EC5EE30F9431
:1030D000140320E030E040E05FE30F949D020F9482
:1030E00081036883DF91CF910895E091EA0786E03C
:1030F000E802F0011124E855F84F8091C40790E0F0
:103100009583848308958F929F92AF92BF92CF92BE
:10311000DF92EF92FF92CF936B017C0120E030E0D1
:10312000A9010E941DFE87FDC3C06DEB77E386E019
:1031300095E3A70196010F949D026B017C0120E0AD
:1031400030E0A9010E941DFE87FFB7C0C701B6018C
:10315000905820E030E040E251E40E9482FE20E0FE
:1031600030E040E251E40E9482FE20E030E040EA9C
:1031700050E40F949D0220E030E040E251E40F94CF
:1031800014030F947C036B017C0160E280EAC81693
:1031900086E8D80681E0E806F1048CF0C701B601A4
:1031A00020EA36E841E050E00F941902CA01B90163
:1031B0002AE030E040E050E00F941902605D609337
:1031C000C80760E280E1C81687E2D806E104F1048E
:1031D0008CF0C701B60120E137E240E050E00F94E7
:1031E0001902CA01B9012AE030E040E050E00F9432
:1031F0001902605D6093C90760E288EEC81683E03B
:10320000D806E104F1048CF0C701B60128EE33E0E2
:1032100040E050E00F941902CA01B9012AE030E001
:1032200040E050E00F941902605D6093CA0760E2CD
:1032300084E6C816D104E104F1048CF0C701B6019C
:1032400024E630E040E050E00F941902CA01B901D1
:103250002AE030E040E050E00F941902605D609396
:10326000CB078AE0882E912CA12CB12CC701B60186
:10327000A50194010F941902C62FCA01B901A50135
:1032800094010F941902605D6093CC078EE28093E5
:10329000CD07C05DC093CE0788EC97E0CF91FF903B
:1032A000EF90DF90CF90BF90AF909F908F90089558
:1032B0006DEB77E386E095EB3CCF20E030E040E239
:1032C00051E4C701B60149CFCF93DF93EC01CB01A5
:1032D000BA010E9423FE20E030E040E251E40F9466
:1032E0001403688379838A839B83DF91CF91089548
:1032F0000E9423FE20E030E040E251E40F941403EA
:1033000002CFCF93DF93EC01CB01BA010E9423FEE1
:10331000688379838A839B83DF91CF910895CF93CC
:10332000DF93EC01CB01BA010E9423FE688379830D
:103330008A839B83DF91CF910895CF93DF93EC0134
:10334000CB01BA010E9423FE20E030E048EC52E4B9
:103350000F941403688379838A839B83DF91CF91D1
:103360000895CF93DF93EC01CB01BA010E9423FEB5
:1033700020E030E048EC52E40F9414036883798332
:103380008A839B83DF91CF910895CF93DF93EC01E4
:10339000CB01BA010E9423FE2AE037ED43E25DE350
:1033A0000F9414030F948103688379838A839B832A
:1033B000DF91CF910895CF93DF93EC01CB01BA0158
:1033C0000E9423FE2AE037ED43E25DE30F941403ED
:1033D000688379838A839B83DF91CF910895CF930C
:1033E000DF93EC01CB01BA010E9423FE688379834D
:1033F0008A839B83DF91CF910895CF93DF93EC0174
:10340000CB01BA010E9423FE0F947C037983688369
:10341000DF91CF910895CF93DF93EC01CB01BA01F7
:103420000E9423FE20E030E04AE754E40F941403A6
:10343000688379838A839B83DF91CF910895FC0110
:1034400084910895FC0180810895FC01A081B181DF
:103450001C92A281B3818C918F5F8C930280F38147
:10346000E02D90818CE0989F800D1124EBEFF3E12B
:1034700013AE84AF0895009751F0FC0180E0919164
:10348000992331F0907C9038D1F38F5FF8CF80E0B2
:1034900008959091050194709093030100C087FDF9
:1034A0007FC0A3989091050190959470909303012B
:1034B00000C000C09091050194709093030100C07A
:1034C00086FD7AC0A3989091050190959470909391
:1034D000030100C000C09091050194709093030116
:1034E00000C085FD67C0A3989091050190959470E8
:1034F0009093030100C000C09091050194709093D7
:10350000030100C084FD54C0A398909105019095DB
:1035100094709093030100C000C0909105019470D5
:103520009093030100C083FD41C0A39890910501D1
:10353000909594709093030100C000C09091050194
:1035400094709093030100C082FD2EC0A3989091C7
:103550000501909594709093030100C000C0909174
:10356000050194709093030100C081FD1BC0A398D6
:1035700080910501809584708093030100C000C094
:103580008091050184708093030100C0A39880910D
:103590000501809584708093030100C000C00895E8
:1035A000A39A80CFA39AE4CFA39AD1CFA39ABECFF8
:1035B000A39AABCFA39A98CFA39A85CF90E080E04F
:1035C0000895CF93DF93C0919907D0919A0781E036
:1035D000CE31D105E4F020E030E040E05FE36091DF
:1035E00095077091960780919707909198070F948F
:1035F0009D020F947C036C1B7D0B77FF03C07195BC
:103600006195710981E0633071050CF080E0DF9114
:10361000CF910895CF93DF93DB01F9019C91913015
:10362000C1F0943080F094509C938830D1F4808124
:103630009181009771F0019791838083480F591F02
:10364000EA01188206C08C3539F49C5F9C93943053
:1036500041F4DF91CF9108958B3339F781E08C935A
:10366000F8CF20813181B9016F5F7F4F7183608313
:10367000420F531FEA018883808191818F35910524
:103680006CF7E7CF0F931F9381E000914E151091D7
:103690004F15209150153091511540914A15509178
:1036A0004B1560914C1570914D15041715072607A1
:1036B000370708F480E01F910F91089590E080E0B3
:1036C00008952091E004833021F425FD0CC024FDF1
:1036D0000CC030E0A90102C0559547958A95E2F7E4
:1036E000CA018170089581E0089580E00895809175
:1036F000FB0484FD0BC08091FD0487FD07C0909101
:10370000FE04937081E019F480E0089581E008954B
:103710002FEB280F2A3108F047C0E22FF0E080910C
:10372000FB049091FC04A091FD04B091FE0404C040
:10373000B695A795979587952A95D2F780FD02C0F3
:1037400081700895EF51FB4FE081EE2341F18091AC
:10375000330890913408E80FF92FF11D808190ED26
:10376000980F9A3030F08E3251F4818180538A3034
:1037700098F4F093DE04E093DD0481E008958D3247
:1037800011F08B3249F4818190ED980F9A3088F3D3
:103790008E3211F48281EACFF0E0E0E0EACF1092BD
:1037A000DE041092DD04E9CF80E0089580914E029E
:1037B000882341F060918B0570918C0541E081E098
:1037C0000C9451D80895CF92DF92EF92FF920E940D
:1037D00023FE6B017C0120E030E0A9010E941DFE68
:1037E0002DEB37E346E055E387FF04C02DEB37E3CD
:1037F00046E055EBC701B6010F949D026B017C01B9
:1038000020E030E0A9010E941DFE20E030E040E011
:103810005FE387FF04C020E030E040E05FEBC701DA
:10382000B6010F949D020F947C03CB01FF90EF90A3
:10383000DF90CF900C945EAE0E9423FE0F947C0329
:10384000CB010C945EAE0E9423FE29EC38EC48ECD0
:103850005EE30F94140320E030E040E05FE30F9458
:103860009D020F948103862F0C9493AECF93DF9328
:1038700000D01F92CDB7DEB70F9481030E9421FEC6
:1038800069837A838B839C83CE0101960E945CAD11
:103890000F900F900F900F90DF91CF9108950E949D
:1038A00023FE2AE037ED43E25DE30F941403DECFFD
:1038B000CF92DF92EF92FF92CF93DF9300D01F92CF
:1038C000CDB7DEB76B017C0120E030E0A9010E949A
:1038D0001DFE87FD1BC06DEB77E386E095E3A70136
:1038E00096010F949D0269837A838B839C83CE011A
:1038F00001960E945CAD0F900F900F900F90DF919A
:10390000CF91FF90EF90DF90CF9008956DEB77E32C
:1039100086E095EBE4CF0E9423FE2AE037ED43E2F8
:103920005DE30F941403C4CF0E9423FEC1CFCF9256
:10393000DF92EF92FF926B017C0120E030E0A90161
:103940000E941DFE87FD26C06DEB77E386E095E3C0
:10395000A70196010F949D026B017C0120E030E0ED
:10396000A9010E941DFE20E030E040E05FE387FFF8
:1039700004C020E030E040E05FEBC701B6010F94E7
:103980009D020F947C03CB01FF90EF90DF90CF90CE
:103990000C94DFAD6DEB77E386E095EBD9CF0E9419
:1039A00023FEC5CFCF92DF92EF92FF92CF93DF93AA
:1039B00000D01F92CDB7DEB70E9423FE20E030E09A
:1039C00048EC52E40F9414036B017C0120E030E0DA
:1039D000A9010E941DFE2DEB37E346E055E387FF6A
:1039E00004C02DEB37E346E055EBC701B6010F9459
:1039F0009D0269837A838B839C83CE0101960E940A
:103A0000B7AC0F900F900F900F90DF91CF91FF9078
:103A1000EF90DF90CF900895CF92DF92EF92FF92D8
:103A2000CF93DF9300D01F92CDB7DEB70E9423FE65
:103A300020E030E04AE754E40F9414036B017C016A
:103A400020E030E0A9010E941DFE2DEB37E346E0A7
:103A500055E387FF04C02DEB37E346E055EBC70184
:103A6000B6010F949D0269837A838B839C83CE0178
:103A700001960E94BBD90F900F900F900F90DF918D
:103A8000CF91FF90EF90DF90CF9008950E9423FE9A
:103A900020E030E048EC52E40F9414030C9431B36E
:103AA0000C944B940C944B940C94FD930C94FD93B8
:103AB0000C94FD930C94FD9363E972E084E690E02E
:103AC0000E94E2B270E060E08AE090E00E94E2B220
:103AD0006AEB72E084E690E00C94E2B28111ECCFE4
:103AE00068E270E080E991E00C94E2B20E941E91DD
:103AF000F5CF0E94FCABF2CFCF92DF92EF92FF9214
:103B00000F931F930E9424DE0091090510910A056E
:103B100020910B0530910C056B017C01C01AD10A74
:103B2000E20AF30A9701860137FD11C020910805CA
:103B30002095209308056A547C4F8F4F9F4F6093C8
:103B4000090570930A0580930B0590930C0581E09D
:103B500090910805911101C080E01F910F91FF9095
:103B6000EF90DF90CF9008950E945EAAA5CFBF92FC
:103B7000CF92DF92EF92FF920F931F93CF93DF9339
:103B80006B01E9014A3009F4D6C0453109F081C022
:103B9000DB011296ED91FC911281C681D781A49A26
:103BA00000C0000086E290E00197F0F7012F029537
:103BB000007F20E1B22EB10E88EF6BDC00C0000068
:103BC00086E290E00197F0F7103208F0A1C0812F53
:103BD000807780685EDC802F5CDC00C0000086E2BD
:103BE00090E00197F0F780E854DC80E052DC00C000
:103BF000000086E290E00197F0F78AEF4ADC00C00F
:103C0000000086E290E00197F0F77E01B0E1EB0E54
:103C1000F11C8881807F3DDC89918295807F39DC31
:103C2000CE15DF05B1F700C0000086E290E00197F5
:103C3000F0F71F5F005F1B11BFCFA498D60112964B
:103C4000ED91FC9180819281980F9283218192174E
:103C500008F02DC294819F5F94839381890F82170E
:103C600010F08FEF820F8383458150E0440F551F82
:103C700070E060E0868197810F949F0481E0DF917E
:103C8000CF911F910F91FF90EF90DF90CF90BF9059
:103C90000895FB0102811381423309F40AC208F43A
:103CA00012C2463409F4FFC1473409F407C24B334A
:103CB00029F789812B81D80112967C91129713964E
:103CC0003C91213009F444C2233009F025C248EF69
:103CD000480F582F91E0341708F490E031E0541762
:103CE00008F030E0492F432B61E0571708F460E0FB
:103CF000462319F4932309F4C1CFFA8030E0F90187
:103D0000E054FD4FD08024543D4FF901E0801DC2A6
:103D100080EE810F8068807FBCDB812F8295807F61
:103D2000B8DB00C0000086E290E00197F0F780E881
:103D3000B0DB80E85BCF9C9AA4989B9AA398809173
:103D40000401846080930401809105018095847052
:103D500080930301A49A00C0000086E290E00197DE
:103D6000F0F788E790E0CEE9DFE0FE013197F1F768
:103D70000197D9F788EF8DDB00C0000086E290E064
:103D80000197F0F780E285DB80E083DB00C0000074
:103D900086E290E00197F0F780E07BDB80E879DB5A
:103DA00000C0000086E290E00197F0F780E071DB50
:103DB00080E16FDB00C0000086E290E00197F0F741
:103DC000CE010197F1F7CE010197F1F7CE010197EE
:103DD000F1F7CE010197F1F7CE010197F1F7CE018E
:103DE0000197F1F7CE010197F1F7CE010197F1F7B5
:103DF000CE010197F1F7CE010197F1F7CE010197BE
:103E0000F1F7CE010197F1F7CE010197F1F7CE015D
:103E10000197F1F72197F1F780E23BDB80E439DB92
:103E200000C0000086E290E00197F0F780E231DB0D
:103E300080E62FDB00C0000086E290E00197F0F7FB
:103E4000D0E0C0E08C2F8077806823DB8D2F21DBD2
:103E500000C0000086E290E00197F0F780E819DBEF
:103E600080E017DB00C0000086E290E00197F0F7E9
:103E70008AEF0FDB00C0000086E290E00197F0F7C8
:103E800090E28091050184708093030100C0A398A3
:103E900080910501809584708093030100C000C06B
:103EA0008091050184708093030100C0A3988091E4
:103EB0000501809584708093030100C000C080914B
:103EC000050184708093030100C0A39880910501CF
:103ED000809584708093030100C000C0809105012B
:103EE00084708093030100C0A398809105018095A0
:103EF00084708093030100C000C08091050184702C
:103F00008093030100C0A39880910501809584707F
:103F10008093030100C000C08091050184708093EC
:103F2000030100C0A398809105018095847080935F
:103F3000030100C000C080910501847080930301DB
:103F400000C0A3988091050180958470809303013F
:103F500000C000C08091050184708093030100C0FF
:103F6000A39880910501809584708093030100C01F
:103F700000C08091050184708093030100C0A39864
:103F800080910501809584708093030100C000C07A
:103F90008091050184708093030100C0A3988091F3
:103FA0000501809584708093030100C000C080915A
:103FB000050184708093030100C0A39880910501DE
:103FC000809584708093030100C000C0809105013A
:103FD00084708093030100C0A398809105018095AF
:103FE00084708093030100C000C08091050184703B
:103FF0008093030100C0A39880910501809584708F
:104000008093030100C000C08091050184708093FB
:10401000030100C0A398809105018095847080936E
:10402000030100C000C080910501847080930301EA
:1040300000C0A3988091050180958470809303014E
:1040400000C000C08091050184708093030100C00E
:10405000A39880910501809584708093030100C02E
:1040600000C000C00000E6E2F0E03197F0F79150A8
:1040700009F007CF88EF0DDA00C0000086E290E07B
:104080000197F0F7CF5FD05FC03209F0DBCE80E060
:1040900000DA80ECFED900C0000086E290E00197D3
:1040A000F0F7A498EBCDF80185818883E7CD80E017
:1040B000E6CDB901C8010E9458DFE0CDD8011196C4
:1040C0008C918883DBCD443191F0473109F0D6CD16
:1040D0001882D80112968C911297898315968C912B
:1040E000159781508A8313968C918B83C7CDD80105
:1040F00015964C91159750E0440F551F70E060E005
:1041000016968D919C910F949F04F80112828081E4
:10411000815083831482B2CD381708F4AFCD87174E
:1041200008F4ACCDFA80E12CD12C243070F4E6CD2B
:10413000BE01C8010E9458DF898198819D0D988336
:104140008E0D8983FF0C09F499CDF7FEF6CFF0CFE1
:1041500058E0580F482FBECDEF92FF920F931F9358
:10416000CF93DF93EC018B017A018A859B858617BB
:10417000970731F0888199810E948AE11B870A871D
:10418000B701888199810E9409D92E813F81820FD0
:10419000932F911D9F838E8390E080E0DF91CF91DC
:1041A0001F910F91FF90EF9008959F92AF92BF9251
:1041B000CF92DF92EF92FF920F931F93CF93DF93F3
:1041C000EC018B01942EA52E8A859B858617970777
:1041D00031F0888199810E948AE11B870A8788854E
:1041E0009985019649F5BC800A818E81080FC880A7
:1041F000D980D6015596ED91FC91C6011995B80E5E
:10420000E92CFA2C10E0F70121917F01211127C040
:104210008E819F81810F911D9F838E8390E080E02E
:10422000DF91CF911F910F91FF90EF90DF90CF9092
:10423000BF90AF909F9008950E811F81692D7A2DB8
:10424000888199810E9409D9800F912F911D28851D
:1042500039852817390738F681E090E0E1CF4B2DFA
:10426000602FC6010E94E2E1080F180FCCCFDF9249
:10427000EF92FF920F931F93CF93DF93EC01D62E13
:104280001CAD0BAD7C0184E0E80EF11CE98DFA8DCC
:10429000C7011995412F480F2D2D602FC7010E948E
:1042A000E2E19BAD890F8BAF81E090E0DF91CF9190
:1042B0001F910F91FF90EF90DF9008952F923F9202
:1042C0004F925F926F927F928F929F92AF92BF9226
:1042D000CF92DF92EF92FF920F931F93CF93DF93D2
:1042E000CDB7DEB72D970FB6F894DEBF0FBECDBFAA
:1042F0008091D612813031F08091521582FF6EC0CC
:1043000087FD6CC00E9407AC4B015C0145E050E0AA
:1043100060E270E081E195E00F949F0485E4809372
:104320000F058AE380931005C501B40120E13EE04A
:1043300040E050E00F94F701D22EC32E022F132F2E
:104340008CE3282E312C412C512CC501B401A20143
:1043500091010F94F701762E672ECA01B901A201CF
:1043600091010F94F7019E012F5F3F4F790130E8D3
:10437000831631E5930631E0A306B10408F447C083
:104380007F936F93C80168E170E00F946D029F9373
:104390008F93C501B40120E831E541E050E00F946E
:1043A000F7013F932F938EED9DE09F938F93FF92A4
:1043B000EF920E94B6FDC7010E946CFD0FB6F89403
:1043C000DEBF0FBECDBF2CE030E0A901481B510974
:1043D000CA01B701815F9A4F0F94C4042D960FB69E
:1043E000F894DEBF0FBECDBFDF91CF911F910F912B
:1043F000FF90EF90DF90CF90BF90AF909F908F9005
:104400007F906F905F904F903F902F90089501158F
:10441000110599F46F927F927F936F9382ED9DE0E7
:104420009F938F93FF92EF920E94B6FD0FB6F89480
:10443000DEBF0FBECDBF85E0C6CF0436110538F410
:104440007F936F93CF92DF9286EC9DE0E9CF7F93CD
:104450006F93CF92DF928CEB9DE09F938F93FF92AF
:10446000EF920E94B6FD0FB6F894DEBF0FBECDBF2F
:1044700086E0A9CFCF93C0911D05CC2391F14CE0EC
:1044800050E060E270E08FE095E00F949F0480E2DE
:10449000C43628F08C2F64E60F945402805D80931C
:1044A000CC0790E2CA3040F02AE08C2F622F0F94A4
:1044B00054020F945402905D9093CD078C2F6AE0C4
:1044C0000F945402905D9093CE0783E0ECECF7E0FC
:1044D000A3E1B5E001900D928A95E1F785E2809322
:1044E0001605CF910895CF9380910505811154C091
:1044F000109236141092371410923814109204143B
:1045000010920314109206141092051410920814BD
:1045100081E08093071482E28093091410920E14B4
:1045200010920D14E2E2F4E120E334E18FEF819385
:104530002E173F07E1F7C1E0C0931F142EE930ECBE
:104540003093151420931414C0931614109217145A
:104550001092181490E49093191410921A142DE9E3
:1045600030EC309331142093301425E132E0309355
:1045700002142093011498E49093261497E49093E6
:10458000271496E490932414809323148093221488
:104590000E9496DFC093050581E08093070586EBB6
:1045A0009DE09093061380930513109208131092C8
:1045B0000713CF910895CF92DF92EF92FF920F935E
:1045C0001F93CF93DF93CDB7DEB72C970FB6F89438
:1045D000DEBF0FBECDBFF0903614E09037142091AF
:1045E000070521111DC046E75DE06E2D8F2D0E944D
:1045F0004DE290E080E0F80EF0923614E09237142D
:1046000099272C960FB6F894DEBF0FBECDBFDF9171
:10461000CF911F910F91FF90EF90DF90CF90089571
:10462000C0900314D09004142FEF33E13A83298310
:104630002F2D30E03C832B832E2D30E03E832D83C5
:1046400018861F827A8769871C861B8605ED10E213
:104650009E012F5F3F4F4FE15AE1BC01C6010E940E
:104660001DD2B6018FEF93E10E948AE18F81988578
:10467000C2CF8091DD049091DE04009731F04AE0D2
:1046800050E070E060E00C943EFC60E070E0CB0134
:1046900008958091DD049091DE04009731F04AE0A6
:1046A00050E070E060E00C9413FB60E070E0CB0140
:1046B0000895EFDFCB010895ECDF97FD0AC0E9DF35
:1046C0006F3F71058105910509F02CF4E2DF862F1B
:1046D000089580E008958FEF0895EF92FF920F9371
:1046E0001F93CF93DF9300D000D000D01F921F9272
:1046F000CDB7DEB77C0120918E05422F022E000C33
:10470000550B80918F05833099F1843051F181E40C
:1047100091E15F932F939F938F938E010F5F1F4FB4
:104720001F930F930E94B6FDC7010E9421B34FE370
:1047300050E0B8018FE497E00F94D9040F900F90E8
:104740000F900F900F900F902B960FB6F894DEBF3E
:104750000FBECDBFDF91CF911F910F91FF90EF90D2
:1047600008958DE491E127FDD4CF88E391E1D1CF85
:1047700086E591E1CECFE091EA0786E0E802F0011C
:104780001124E855F84F80819181A7CF80912308AB
:1047900090912408A2CFAF92BF92CF92DF92EF9276
:1047A000FF920F931F93CF935C016B018A01895491
:1047B0009B4F7C01DC01CC91C7FF3DC0FB01118206
:1047C0001082CF5FD701CC93CC300CF053C08CE07B
:1047D0008A9DF0018B9DF00D1124CF018C0F911D4E
:1047E000C7FD9A952091B6132817190609F00CF405
:1047F00041C0F60120813181FC01EE0FFF1FE80F5F
:10480000F91FE259FC4E81819281820F931FD801DA
:1048100011969C938E93808187FF3DC061E08F77D6
:10482000CF911F910F91FF90EF90DF90CF90BF90AD
:10483000AF900C9451DC8CE08A9DF0018B9DF00DC3
:104840001124CF018C0F911DC7FD9A952091B613AD
:104850002817190609F00CF4B4CFFC01EE0FFF1F66
:10486000E80FF91FE259FC4E808160E08F770E94CB
:1048700051DCA7CFF6018081918104968034FCE958
:104880009F0710F480E49CE9D80111969C938E93C5
:104890008FEFF7018083CF911F910F91FF90EF90E1
:1048A000DF90CF90BF90AF900895CF93DF93CDB7B7
:1048B000DEB720E2488559856F818E810E94B6D887
:1048C000DF91CF910895282F8FEF809326021092C9
:1048D000E8078091D3079091D407A091D507B091B4
:1048E000D607B7FF08C01092D3071092D4071092D2
:1048F000D5071092D60780919105882331F08091D9
:10490000D3078093C0071092E3078091BA07181667
:10491000FCF4082E000C990B821B91092091C00712
:10492000022E000C330B2817390794F097FF02C0B2
:1049300090E080E08093C007092E000CAA0BBB0B0F
:104940008093D3079093D407A093D507B093D6074D
:104950008091C0076623A9F09091C107891714F4CC
:104960008093C1072091C107022E000C330B2C5FEE
:104970003F4F482F082E000C550B241735071CF409
:1049800084508093C1070895AF92BF92CF92DF9277
:10499000EF92FF920F931F93CF93DF9361E081E03B
:1049A00092DFC091C10705E00C0FD1E084E9E82E49
:1049B00081E1F82E12E01C1B9DE9C92E91E1D92E50
:1049C000BD2EBC1AAC2EA194C1112EC0DD23D9F08E
:1049D0008091C0071816BCF04091D3075091D407BE
:1049E0006091D5077091D6074F5F5F4F6F4F7F4F34
:1049F0004093D3075093D4076093D5077093D6079D
:104A00008F5F8093C00780914E02882331F041E090
:104A100068EA71E18A2D0E9451D8CF5F0C13D4CF80
:104A200083E08093BA071DC0C13031F59091C00773
:104A3000913069F080914E028823B1F11F92DF928C
:104A4000CF92BF9281E0913041F180E026C0809109
:104A5000BB071092BB07882369F38091E307882383
:104A600049F3DF91CF911F910F91FF90EF90DF906D
:104A7000CF90BF90AF900895C23079F69091C00763
:104A80009230A1F080914E02882371F01F92FF9224
:104A9000EF921F9381E09230C1F68F9306DF0F9063
:104AA0000F900F900F900F90D0E0B7CF8091BB0781
:104AB0001092BB07882331F38091E307882311F319
:104AC000D0CF8F929F92AF92BF92EF92FF920F93AF
:104AD0001F93CF93DF93EC018B01E42EF22E809194
:104AE000F9139091FA138C179D0709F43DC01092A9
:104AF00092052BEBC837D20709F041C08F5A974473
:104B000071F40E9424DE6E517B4F8F4F9F4F609354
:104B10008705709388058093890590938A05D093C3
:104B2000FA13C093F91330E020E00093D3071093F9
:104B3000D4072093D5073093D607E092C107F092AF
:104B4000BA07CF5AD74421F41092F2071092860583
:104B500082E080934E0281E08093E30710929005FB
:104B60008093260210928D05DF91CF911F910F91B6
:104B7000FF90EF90BF90AF909F908F90089527E4A3
:104B8000CF3AD20761F688579B4B19F0CFEAD7E4AA
:104B9000C6CF0E9424DE8090870590908805A09063
:104BA0008905B0908A05681979098A099B0997FFD8
:104BB000EDCF809129078770873041F7C0E7D0E8B3
:104BC000AECF20E040E070E060E08FEA97E479CF7C
:104BD000CF930E945EAA0E941E91C82F882319F0CD
:104BE00080E00E9474908C2F0E946E1DCF91E9CFBF
:104BF0008AE490E190934E0780934D07E2CFCF93E4
:104C0000DF93C0918605CC23B1F0C150C0938605D7
:104C100089E0C89FE0011124C05BDA4F6A817B8183
:104C20002F814E81888199814CDF88858093F2079E
:104C3000DF91CF910895DF91CF91C3CFE0918605A9
:104C4000E63028F581E08E0F809386054091D307EA
:104C50005091D4076091D5077091D6072091C10774
:104C60009091BA078091F20739E0E39FF001112497
:104C7000E05BFA4FA091F913B091FA13B183A083CE
:104C80004283538364837583268397838087089543
:104C90008093C40720E040E070E060E081ED9AE29C
:104CA00010CFCF93DF93CDB7DEB78E81282F082E9C
:104CB000000C330B909104139217130609F08CF437
:104CC000809304139E01275F3F4F4F8158856AE20E
:104CD00070E089ED92E10E94E5FD1092D8121092E9
:104CE000D712DF91CF9108950F931F93CF93DF9346
:104CF0008C016F3F19F41092041360E020910413AB
:104D0000862F062E000C990B2817190609F014F5AA
:104D100060930413C8010E946CFD800F911FEC0189
:104D2000C01BD10BCB32D1053CF00197FC01249183
:104D3000207C2038D1F3F3CFDD27AE01B80189ED17
:104D400092E10E948DFDC752DD4E18821092D8125A
:104D50001092D712DF91CF911F910F910895CF93A9
:104D600080914805811109C082EF9EE090938C05E7
:104D700080938B0581E08093480560DF20E040E070
:104D800070E060E086ED9BE19CDEC1E0C093F2073D
:104D90000E946E941092F20732DFC093F20760E037
:104DA0008FE190E3A1DF40E061E080E00E9424BE5B
:104DB00088EE9EE090934E0780934D07CF91089523
:104DC0000F931F930E9424DE009144051091450526
:104DD0002091460530914705601B710B820B930BA8
:104DE00097FD13C08091030185FB882780F991E02E
:104DF00089279091030196FF82609091030194FFAF
:104E000002C0629B8460809343058091430581705A
:104E10009091430591FD826090914205981749F069
:104E2000813029F148F0823089F08330A1F08093FD
:104E300042051F910F910895913089F09230B9F792
:104E40009091410520912602921B0EC0992339F0C2
:104E50009330B1F3ECCF913099F3923041F79091C8
:104E6000410520912602920F90934105E0CF9923AE
:104E700039F39330E1F6F3CFCF92DF92EF92FF92C6
:104E8000CF93C82F0E9424DE6B017C0124EA30E717
:104E90004DE75FE36091270270912802809129021B
:104EA00090912A020E941DFE87FD18C08AEF90E0B3
:104EB000A0E0B0E08C0D9D1DAE1DBF1D809331059F
:104EC00090933205A0933305B0933405C0931C0230
:104ED000CF91FF90EF90DF90CF90089580E090E029
:104EE000DC01E8CFCF93DF93FEDAE4E0F1E08081EC
:104EF0008F7D8083C5E0D1E0888180958072A3E0BA
:104F0000B1E08C9380818F7B8083888180958074D1
:104F10008C936A98729A80818F7E80838881809535
:104F200080718C934DDF10924105DF91CF910C94ED
:104F300081D2FC0180E0309749F09491992331F0BF
:104F4000907C903809F08F5F3196F7CF0895AF923B
:104F5000BF92CF92DF92EF92FF920F931F93CF9366
:104F6000DF93EC015B018A01FB01199587FD16C0F7
:104F7000C82ED12CF12CE12C2196F801C082D182CF
:104F8000E282F382CE01DF91CF911F910F91FF90CA
:104F9000EF90DF90CF90BF90AF900895982F907EC4
:104FA000903CA9F48F7190E0B0E0A0E06C017D012D
:104FB00056E0CC0CDD1CEE1CFF1C5A95D1F7CE013F
:104FC0000196F50119958F73C82A2296D6CF982F8E
:104FD000907F903E11F58F7090E0B0E0A0E06C0102
:104FE0007D0136E0CC0CDD1CEE1CFF1C3A95D1F7A0
:104FF000CE010196F50119958F73C82A46E0CC0CB5
:10500000DD1CEE1CFF1C4A95D1F7CE010296F5017E
:1050100019958F73C82A2396B0CF982F987F903F09
:1050200079F5877090E0B0E0A0E06C017D0186E04A
:10503000CC0CDD1CEE1CFF1C8A95D1F7CE0101962D
:10504000F50119958F73C82A96E0CC0CDD1CEE1C77
:10505000FF1C9A95D1F7CE010296F50119958F7331
:10506000C82A26E0CC0CDD1CEE1CFF1C2A95D1F7CB
:10507000CE010396F50119958F73C82A24967DCF2A
:10508000982F907C903841F4807C803869F4219688
:10509000CE01F5011995F8CF8E7F8D3F28F021962E
:1050A000CE01F5011995F8CFC12CD12C760165CF31
:1050B00020E030E040E05FE360911F08709120083D
:1050C00080912108909122080F949D020F947C03F7
:1050D000CB0108959CE0899F802D112491E0980FC9
:1050E000909306052CE0280F2093E90730E02E5F0F
:1050F0003F4F409133144217130619F014F080E02B
:105100000895209135149217D0F7662341F08E5FF1
:105110000E94B8E08091E9078E5F0E94B8E080911C
:10512000E90790913314891750F320913514909129
:105130000605291720F3109236148093371481E066
:10514000089520910405022E000C330B82171306DC
:1051500041F08093040564ED71E18FEF93E10C94CD
:105160008AE10895EF92FF920F931F93CF93DF93FD
:10517000CDB7DEB72C970FB6F894DEBF0FBECDBF0C
:10518000FC0160817181828193816F3F710581058E
:10519000910509F0B8F48BEF93E169D8E09103141D
:1051A000F09104143196849190E02C960FB6F89407
:1051B000DEBF0FBECDBFDF91CF911F910F91FF904A
:1051C000EF9008951091361400913714209107053F
:1051D00021110FC046E95DE0602F812F0E944DE252
:1051E00090E080E0180F109336140093371499273D
:1051F000DCCFE0900314F09004142FEF33E13A83F6
:105200002983212F30E03C832B83202F30E03E8305
:105210002D8318861F822FEF3FEF3A8729871C8640
:105220001B8625ED30E2AE014F5F5F4FBF01C70126
:105230000E9458D1B7018FEF93E10E948AE18F81DC
:105240009885D0CF4F925F926F927F928F929F926C
:10525000BF92CF92DF92EF92FF920F931F93CF9363
:10526000DF9300D000D01F921F92CDB7DEB77C0134
:105270006A014901FB0190818CE0989F800D112407
:10528000982FF7012081822F880F820F880F80933B
:105290003614909337144115510569F1FA82E98269
:1052A0007C836B83011120C0AE014B5F5F4FB40163
:1052B000C6014DDE6C018D819E81AF81B885892B41
:1052C0008A2B8B2BC1F0CE0105964CDFF701808134
:1052D0008F5F8083853140F3CE0101960E94251AAD
:1052E000E3CFB12C860129C08A01B12C26C0452804
:1052F00046284728B1F728960FB6F894DEBF0FBEB0
:10530000CDBFDF91CF911F910F91FF90EF90DF9074
:10531000CF90BF909F908F907F906F905F904F90B5
:105320000895B39407C0B1102DC001151105C9F23D
:105330000F5F1F4F01151105A9F2AE014B5F5F4FC3
:10534000B401C60104DE6C014D805E806F807884FC
:105350004114510461047104A9F0F0E24F165104A4
:105360006104710401F3D301C2018D97A109B10950
:105370000297A105B10530F04BE2441651046104D7
:10538000710479F6F7018081482F4B0D5527551F81
:105390004631510534F0853020F0CE0101960E944F
:1053A000251A81E0411451046104710409F480E07C
:1053B000B80EF70180818B0D8083BB2009F497CF55
:1053C000BA94AE014B5F5F4FB401C801C0DD8C01E0
:1053D000CE010596C7DEF1CF2F923F924F925F929A
:1053E0006F927F928F929F92AF92BF92CF92DF92F5
:1053F000EF92FF920F931F93CF93DF9300D0CDB71F
:10540000DEB74C013B015A012B83232E280181E09A
:105410008093F2074091D3075091D4076091D5074C
:105420007091D607411551056105710571F014168B
:1054300015060CF080E080938D051092D307109232
:10544000D4071092D5071092D60710918D05309091
:10545000BB071092BB07311005C080914E02882314
:1054600009F469C0C20165DD082F80E0C114D104D0
:1054700011F0C6015EDD1A821982E114F104B1F463
:10548000402F50E0282F30E0CA01820F931F46972B
:105490006CF485E190E0841B950B821B930B97FDC8
:1054A0000196959587958A8381E0898301E02FE1B4
:1054B0003AE1A201BE016F5F7F4FCE010296C2DECC
:1054C000E114F10489F08A81882321F01A8289810C
:1054D0008F5F898300E022E23AE1A701BE016F5F9E
:1054E0007F4FCE010296AEDEC114D10451F000E030
:1054F0002FE13AE1A601BE016F5F7F4FCE01029618
:10550000A1DE41E04127B30181E00E9427E1C4010F
:1055100010DD412FB40194E1981B892F0E9427E1EF
:10552000332049F0111102C0AB80B22CA114B10498
:10553000C1F0F50119950F900F900F90DF91CF9169
:105540001F910F91FF90EF90DF90CF90BF90AF90A1
:105550009F908F907F906F905F904F903F902F9093
:1055600008954DDBE8CFCF92DF92EF92FF920F9339
:105570001F938CE3C82E80E1D82EF12CE12C0FE490
:1055800010E130E020E048EE55E26EE370E185E4A2
:1055900090E122DF1F910F91FF90EF90DF90CF906D
:1055A0000895AF92BF92CF92DF92EF92FF920F9346
:1055B0001F93CF93DF93CDB7DEB7ADB6BEB689E408
:1055C0009FE0B7DC90E001962DB73EB7281B390B62
:1055D0000FB6F8943EBF0FBE2DBF8DB79EB7019694
:1055E0007C0169E47FE00E9465FD8091C40706E1CB
:1055F0001FE0813031F001E01FE0823011F009E25C
:105600001FE08AE3C82E8FE0D82E21EE35E248EE67
:1056100055E26CE37FE083E49FE0DEDE0FB6F894B2
:10562000BEBE0FBEADBEDF91CF911F910F91FF9017
:10563000EF90DF90CF90BF90AF9008956FEF7FEF26
:105640000C94DB22EBEFF3E183AF64AFCA01F6CF3A
:10565000F5CFCF93DF93FC0125AD211104C021E0EC
:1056600025AF0E9496DFC0910114D0910214E09101
:105670003014F091311482E01995E0913014F091DA
:10568000311481E0199530E020E044E1BE018FEF54
:1056900093E10E9492DF22E334E147E1BE018FEF04
:1056A00093E10E9492DFE0913014F091311480E098
:1056B000DF91CF9119944F925F926F927F928F9268
:1056C0009F92AF92BF92CF92DF92EF92FF921F9381
:1056D000CF93DF9300D000D01F921F92CDB7DEB7DB
:1056E0000E9424DE6B017C0180911C028F3F09F433
:1056F0003FC00E9424DE8090310590903205A0903A
:105700003305B0903405681979098A099B0997FD1A
:105710002FC08091C3139091C4138F5F8F7089172E
:1057200039F1E0911C0280E090E0A5E0B3E4E430C0
:1057300050F424E0E29FF0011124EC53FD4F8081EE
:105740009181A281B3818D839E83AF83B8871982B3
:105750001A821B821C82AE014F5F5F4FBE016B5FDE
:105760007F4F84E592E00E9443D68FEF80931C0226
:1057700027DB8091430582FF33C080914005811172
:1057800031C091E0909340058091F0078927809384
:10579000BB071092F00783E080934E0210924305FE
:1057A0000E9424DE6C507E4F8F4F9F4F60934405C4
:1057B00070934505809346059093470568E873E12B
:1057C00082E090E00E94E2B216E0115059F00E948F
:1057D00086B262E070E080E090E00E948ADDF5CF62
:1057E0001092400580913C0590913D05A0913E05A9
:1057F000B0913F05A7019601281B390B4A0B5B0BA3
:10580000DA01C901B7FF05C080919005882309F42A
:10581000BCC1D701C6018C599F4FAF4FBF4F80937A
:105820003C0590933D05A0933E05B0933F056091E4
:105830004105062E000C770B77FF03C0719561952B
:1058400071099091410580913B05981364C06330C4
:1058500008F061C0109241058091410580933B059D
:10586000643008F068C08091BB078111EAC0809164
:10587000F9139091FA138F5A974441F480911D02C5
:10588000882309F4F0C0815080931D020E942C9758
:1058900080905F0890906008A0906108B0906208C6
:1058A00081110E943997D501C4013AE0B695A795B8
:1058B000979587953A95D1F7009741E0A407B105F0
:1058C00020F08FEF9FEFA0E0B0E0969587952091B4
:1058D0004E022111DAC030919005311185C18091BD
:1058E000F9139091FA138F5A974409F464C1809187
:1058F000F207811160C18091370590913805A09120
:105900003905B0913A05C81AD90AEA0AFB0AF7FC28
:1059100060C157D95EC1633009F09ECF80914105C7
:1059200087FD07C081E0880F880F8093410564E000
:1059300093CF8FEFF8CF8091E80721E030E040E08F
:1059400050E0882309F456C08090E4079090E50762
:10595000A090E607B090E70781149104A104B10478
:10596000E9F170E090E080E00E9421FE20E030E06C
:1059700040E85EE30E9482FE2B013C01C701B601B4
:10598000681979098A099B090E9421FE9B01AC01D3
:10599000C301B2010F94140320E030E04AE754E45D
:1059A0000E9482FE4B015C0120E030E040E253E4C3
:1059B0000F94000424E630E040E050E087FF12C07E
:1059C00020E030E046E952E4C501B4010F94000440
:1059D0002AE030E040E050E087FF04C021E030E002
:1059E00040E050E0C092E407D092E507E092E6077D
:1059F000F092E7078091030184FF21C0A091410547
:105A00000A2E000CBB0B0F943F0224E030E040E074
:105A100050E00F9419028091D3079091D407A09180
:105A2000D507B091D607820F931FA41FB51F80938F
:105A3000D3079093D407A093D507B093D6071092BD
:105A40004105D701C6018856954CAF4FBF4F809393
:105A5000370590933805A0933905B0933A0581E056
:105A600080934E0204CF8CE080931D028091350517
:105A700090913605009729F0019790933605809311
:105A8000350581E080934E0201CF009741F04091AF
:105A90003505509136054817590708F020CF8091F9
:105AA0009005811111C0223038F0243008F43FC035
:105AB000243011F410924E028BEF93E1CADD81E0A5
:105AC000809391058093900583E03BDB81E0809398
:105AD0001F14E091F913F091FA13199510929105A2
